:100000000C9435190C9466190C9466190C946619A5
:100010000C9466190C9466190C9466190C94661964
:100020000C9466190C9466190C9466190C94661954
:100030000C9466190C94BA540C9466190C946619B5
:100040000C9466190C946C5B0C9466190C946619EC
:100050000C9466190C9466190C94979E0C949F56F8
:100060000C9466190C94AF3E0C9466190C946619A6
:100070000C9466190C9466190C9466190C94661904
:100080000C9466190C9466190C9466190C946619F4
:100090000C9466190C9466190C9466190C946619E4
:1000A0000C9466190C9466190C9466190C946619D4
:1000B0000C9466190C9466190C9466190C946619C4
:1000C0000C9466190C9466190C9466190C946619B4
:1000D0000C9466190C9466190C9466190C946619A4
:1000E0000C94661979537C536B536F537553B35308
:1000F000805384538A538E53925398539C53A053E6
:10010000B353A653AA53AE53BB55C055C555CF558F
:10011000D9555256E355EB55F355FD550756115633
:1001200020562A56525634563E5648563ED024D073
:1001300027D02AD02DD039D030D04AD033D036D0A5
:100140000D941F006E616E00696E66004E414E494F
:100150004E495459494E46CDCCCC3D0AD7233C1785
:10016000B7D13877CC2B329595E6241FB14F0A00D2
:100170000020410000C84200401C4620BCBE4CCAC2
:100180001B0E5AAEC59D7400407A10F35A00A0723F
:100190004E18090010A5D4E80000E87648170000C2
:1001A000E40B54020000CA9A3B000000E1F5050090
:1001B0000080969800000040420F000000A08601D9
:1001C000000000102700000000E8030000000064A9
:1001D00000000000000A0000000000010000000014
:1001E000002C76D888DC674F0823DFC1DFAE59E1E9
:1001F000B1B796E5E3E453C63AE651997696E8E658
:10020000C28426EB898C9B62ED407C6FFCEFBC9C2A
:100210009F40F2BAA56FA5F490055A2AF75C936B3C
:100220006CF9676DC11BFCE0E40D47FEF520E6B5F7
:1002300000D0ED902E0300943577050080841E08D1
:100240000000204E0A000000C80C333333330F98EF
:100250006E12831141EF8D2114893BE65516CFFEB6
:10026000E6DB18D1844B381BF77C1D901DA4BBE442
:1002700024203284725E228100C9F124ECA1E53D84
:1002800027434F4D4D554E49434154494F4E00442D
:10029000525952554E004552524F525300494E4604
:1002A0004F004543484F00536C6565702E2E2E005D
:1002B000206F6620004D424C2047323920706F6914
:1002C0006E74200059206F7574206F662072616E05
:1002D00067652028312D33292E0A0058206F757448
:1002E000206F662072616E67652028312D33292EBC
:1002F0000A004D6573682070726F62696E672064D2
:100300006F6E652E0A005374617274206D65736898
:100310002070726F62696E67207769746820224767
:100320003239205331222066697273742E0A0047D5
:1003300032380A4732392053320053746174653AB7
:1003400020004D65736820626564206C6576656C7D
:10035000696E6720686173206E6F20646174612E1E
:100360000A0053206F7574206F662072616E676596
:100370002028302D35292E0A004D65736820706FB6
:10038000696E742063616E6E6F74206265207265A1
:10039000736F6C7665640A00436C69636B20746FDD
:1003A00020726573756D652E2E2E00A2029D029639
:1003B000028F0281026F66660044454255473A004B
:1003C0004B494C4C45442E20004D313133205300D5
:1003D0006F6B0020573A004520436F6F6C696E6762
:1003E0002E2E2E00452048656174696E672E2E2ED4
:1003F0000020573A0042656420636F6F6C696E6736
:100400002E2E2E004265642068656174696E672E29
:100410002E2E00426F6E64746563682043522D3146
:100420003073204F66662E00544845524D414C5F54
:1004300050524F54454354494F4E004155544F522A
:1004400045504F52545F53445F53544154555300E9
:10045000454D455247454E43595F504152534552D1
:1004600000434153455F4C494748545F4252494716
:1004700048544E45535300544F47474C455F4C49F1
:100480004748545300534F4654574152455F504FCD
:10049000574552004255494C445F50455243454EE2
:1004A00054004C4556454C494E475F444154410029
:1004B0005A5F50524F4245004155544F4C455645A6
:1004C0004C005052494E545F4A4F420050524F47E1
:1004D00052455353004155544F5245504F52545F6B
:1004E00054454D5000564F4C554D455452494300CC
:1004F000454550524F4D0053455249414C5F584F6E
:100500004E5F584F4646004649524D574152455F4F
:100510004E414D453A4D61726C696E20312E312E3F
:100520003920284769746875622920534F55524312
:10053000455F434F44455F55524C3A68747470733D
:100540003A2F2F6769746875622E636F6D2F4D6146
:10055000726C696E4669726D776172652F4D61725A
:100560006C696E2050524F544F434F4C5F5645526A
:1005700053494F4E3A312E30204D414348494E4564
:100580005F545950453A426F6E6474656368204306
:10059000522D3130732045585452554445525F43D3
:1005A0004F554E543A3120555549443A6365646578
:1005B000326132662D343161322D343734382D3981
:1005C0006231322D633535633632663336376666CF
:1005D0000A002F2F200066696C616D656E743A20E9
:1005E000007A5F6D696E3A2000795F6D696E3A201E
:1005F00000785F6D696E3A20005265706F727469A1
:100600006E6720656E6473746F70207374617475A7
:10061000730A004D31343520533C696E6465783E71
:10062000206F7574206F662072616E6765202830B8
:100630002D31290A00205400205200416363656C6B
:1006400065726174696F6E3A2050005741524E498D
:100650004E4721204C6F77205A204A65726B206DDF
:100660006179206C65616420746F20756E77616EAE
:10067000746564207061757365732E0A004F666639
:1006800073657473206170706C6965640045727283
:100690003A20546F6F206661722100546F6F20669C
:1006A00061722066726F6D207265666572656E6339
:1006B0006520706F696E740A0020466C6F773A206F
:1006C00000000136372603FFFFFF353C3D380EFFA3
:1006D000FFFF312E303E12FFFFFFFF28FF0C0809FD
:1006E000FFFFFF1A1C18FFFF2A08440AFF4320647B
:1006F0003A0020693A0020703A00496E76616C69D0
:10070000642065787472756465720A0043290A0072
:1007100061626C656420286D696E2074656D70205F
:1007200000436F6C64206578747275646573206132
:100730007265200023646566696E65204445464104
:10074000554C545F4B64200023646566696E6520D8
:1007500044454641554C545F4B692000236465660F
:10076000696E652044454641554C545F4B702000EE
:10077000504944204175746F74756E652066696ECA
:100780006973686564212050757420746865206CF5
:10079000617374204B702C204B6920616E64204B78
:1007A0006420636F6E7374616E74732066726F6D14
:1007B0002062656C6F7720696E746F20436F6E6680
:1007C000696775726174696F6E2E680A00504944DA
:1007D000204175746F74756E65206661696C65641F
:1007E000212074696D656F75740A00453120544885
:1007F00045524D414C2052554E4157415900546885
:1008000065726D616C2052756E617761790045315A
:100810002048656174696E67206661696C65640073
:1008200048656174696E67206661696C6564005033
:100830004944204175746F74756E65206661696CFA
:100840006564212054656D706572617475726520F0
:10085000746F6F20686967680A00204B643A200053
:10086000204B693A2000204B703A20000A20436C4C
:10087000617373696320504944200A002054753A1B
:100880002000204B753A2000206D61783A2000202E
:100890006D696E3A200020643A200020626961731D
:1008A0003A2000504944204175746F74756E65207C
:1008B0006661696C656421204261642065787472A8
:1008C00075646572206E756D6265720A00504944E8
:1008D000204175746F74756E652073746172740A4B
:1008E000004E6F2063617365206C696768740A004D
:1008F0004F66660A004661646520486569676874EA
:100900002000426564204C6576656C696E67200046
:100910004661696C656420746F20656E61626C6508
:1009200020426564204C6576656C696E670A004DEF
:1009300065736820426564204C6576656C2064614F
:1009400074613A0A004D65736820706F696E742097
:1009500063616E6E6F74206265207265736F6C7672
:1009600065640A004D34323120696E636F727265BE
:10097000637420706172616D657465722075736156
:1009800067650A00416374697665204578747275FD
:100990006465723A2000496E76616C6964206578FE
:1009A0007472756465720A00656E71756575656946
:1009B0006E672022004D333100534420726561641C
:1009C000206572726F720A00446F6E6520707269E2
:1009D0006E74696E672066696C650A004E6F20430D
:1009E0006865636B73756D2077697468206C696ED8
:1009F00065206E756D6265722C204C617374204C9D
:100A0000696E653A20004B494C4C45442E200053FA
:100A1000544F505045442E20005072696E746572D8
:100A20002073746F707065642064756520746F2026
:100A30006572726F72732E20466978207468652023
:100A40006572726F7220616E6420757365204D3916
:100A5000393920746F20726573746172742E202886
:100A600054656D706572617475726520697320726A
:100A7000657365742E2053657420697420616674F3
:100A800065722072657374617274696E67290A00F9
:100A90004E6F20436865636B73756D20776974686A
:100AA000206C696E65206E756D6265722C204C61DC
:100AB0007374204C696E653A2000636865636B73DC
:100AC000756D206D69736D617463682C204C617362
:100AD00074204C696E653A20004C696E65204E7535
:100AE0006D626572206973206E6F74204C6173743F
:100AF000204C696E65204E756D6265722B312C201D
:100B00004C617374204C696E653A20004D31313070
:100B10000020496E76616C69642065787472756432
:100B200065722000000000000000000000000000CE
:100B300000009643000096430000C8434B494C4CCC
:100B400045442E2000202D20496E76616C6964207A
:100B50006578747275646572206E756D6265722059
:100B6000210A001FFFFFFFFFFFFF600000000001E0
:100B7000FF400000000000FF8000000000007F83B5
:100B8000CF00000C303F87FF80000C301F8679803B
:100B9000000C000F8C30C7838C30E78C30CFC7CC73
:100BA00031F38C30DCECEC33B98C30D86C6C33190D
:100BB0008C30D06C0C33198C30D86C0C33198C30D1
:100BC000DC6C0E3B198C30CF7C079F198C30C77CB6
:100BD000038F1940000000000002600000000000C8
:100BE000061FFFFFFFFFFFF8494E56414C494420C6
:100BF00044415441004D32342053256C6420542527
:100C00006C64004D3233202573004739322E30207A
:100C10005A257320452573004D3432302053256901
:100C2000205A25730047323820523020582059006E
:100C30004731205A32004739322E30205A30004D89
:100C4000343230205330205A30002020506C616EF6
:100C50006E657242756666657242797465733A2094
:100C6000002046726565204D656D6F72793A2000EF
:100C7000436F6D70696C65643A2041707220323543
:100C800020323031390A00207C20417574686F723F
:100C90003A20286E6F6E652C2064656661756C74F1
:100CA00020636F6E666967290A00323031382D3053
:100CB000372D333100204C6173742055706461749A
:100CC00065643A2000312E312E390A004D61726C74
:100CD000696E0020536F6674776172652052657388
:100CE00065740A00205761746368646F67205265F9
:100CF0007365740A002042726F776E206F757420DE
:100D000052657365740A002045787465726E616C73
:100D10002052657365740A00506F77657255700ACA
:100D20000073746172740A006175746F25692E67AF
:100D3000006572726F722077726974696E672074D1
:100D40006F2066696C650A00456E6473746F70731A
:100D500020256320256320256320256300205A3A3F
:100D60000020593A0020583A00656E6473746F7021
:100D700073206869743A2000446F6E652073617651
:100D8000696E672066696C652E0A004D3239004530
:100D900072726F722077726974696E6720746F2047
:100DA000454550524F4D210A00454550524F4D2068
:100DB0006461746173697A65206572726F722E0A5C
:100DC00000290A002062797465733B2063726320F6
:100DD0000053657474696E67732053746F72656431
:100DE000202800526573746F7265206661696C73A8
:100DF000616665004C6F61642073657474696E6729
:100E00007300496E697469616C697A652045455063
:100E1000524F4D0053746F72652073657474696E20
:100E200067730046696C616D656E74004D6F74691F
:100E30006F6E0054656D7065726174757265004DFA
:100E400061696E005072656865617420414253208B
:100E5000636F6E66005072656865617420504C4126
:100E600020636F6E66005049442D44005049442D64
:100E700044005049442D49005049442D49005049EF
:100E8000442D50005049442D5000200820466163F5
:100E9000740020082046616374002008204D6178AA
:100EA000002008204D6178002008204D6178002046
:100EB00008204D696E002008204D696E0020082032
:100EC0004D696E004F6666004F6E20004175746F6D
:100ED00074656D700046616E2073706565640046D0
:100EE000616E2073706565640042656400426564EC
:100EF000004E6F7A7A6C65004E6F7A7A6C650043AB
:100F00006F6E74726F6C0053746F726520736574CA
:100F100074696E67730042656400426564004E6FD9
:100F20007A7A6C65004E6F7A7A6C650046616E2045
:100F300073706565640046616E207370656564005A
:100F400054656D7065726174757265005654726196
:100F500076206D696E005654726176206D696E0060
:100F60005654726176206D696E00566D696E00563A
:100F70006D696E00566D696E00566D617820450092
:100F8000566D6178204500566D6178204500566D9C
:100F90006178205A00566D6178205A00566D61784C
:100FA000205A00566D6178205900566D617820599D
:100FB00000566D6178205900566D617820580056B2
:100FC0006D6178205800566D61782058004D6F741F
:100FD000696F6E0000002100240027002A002D0008
:100FE0003000330001010000040107010A01000084
:100FF0002200250028002B002E00310034000201C1
:101000000000050108010B0100002000230026005C
:1010100029002C002F00320000010000030106010E
:10102000090105050505070508080808020202026E
:101030000A0A080804040404010101010101010174
:101040000303030303030303040707070C0C0C0C3F
:101050000C0C0C0C02020202060606060606060628
:101060000B0B0B0B0B0B0B0B0102102020080810B5
:101070002040102040800201020108040201010208
:1010800004081020408080402010080402018004E1
:10109000020180402010080402010804020101023C
:1010A0000408102040800102040810204080000045
:1010B0000A0B02090C0D0E080703040100000000D2
:1010C0000000000000000000000000000000000020
:1010D00000000000000000000000121110000000DD
:1010E0000000000000000000000000000000000000
:1010F000000000000224F4D43050C38E20C2A2406D
:1011000017828B7011127A910D816CD90AA861E156
:1011100008C7586607615143061E4B5D05C145A7C8
:10112000041A411104093D9803713931034036DB3B
:101130000265339102D4305402802E1D02632CEEDE
:1011400001752AC501B028A001102781018F2564EF
:10115000012B244B01E0223401AC211F018D200D15
:1011600001801FFC00841EED00971DDF00B81CD21B
:1011700000E61BC600201BBC00641AB200B219A80E
:10118000000A19A0006A189900D117910040178B26
:1011900000B516840031167E00B31579003A157338
:1011A00000C7146F0058146A00EE136600881363BA
:1011B0000025135E00C7125B006C12570015125415
:1011C00000C111510070114F0021114B00D6104980
:1011D000008D1047004610440002104200C00F402E
:1011E00000800F3E00420F3C00060F3B00CB0E3844
:1011F00000930E37005C0E3500270E3400F30D32DD
:1012000000C10D3100900D3000600D2E00320D2D0B
:1012100000050D2C00D90C2B00AE0C2900850C29E3
:10122000005C0C2700350C27000E0C2600E80B2470
:1012300000C40B2400A00B23007D0B23005A0B21BC
:1012400000390B2100180B2000F80A1F00D90A1ED4
:1012500000BB0A1E009D0A1D00800A1D00630A1CB7
:1012600000470A1B002C0A1B00110A1A00F7091A72
:1012700000DD091900C4091900AB0919009209170A
:10128000007B091800630917004C0916003609167F
:1012900000200916000A091500F5081500E00814D9
:1012A00000CC081400B8081400A408140090081317
:1012B000007D0812006B081300580812004608123F
:1012C0000034081100230811001208110001081150
:1012D00000F0071000E0071000D0071000C0071052
:1012E00000B0070F00A107100091070E0083070F41
:1012F0000074070F0065070E0057070E0049070E20
:10130000003B070D002E070E0020070D0013070DF0
:101310000006070D00F9060C00ED060D00E0060CB6
:1013200000D4060C00C8060C00BC060C00B0060C6D
:1013300000A4060B0099060C008D060B0082060B1C
:101340000077060B006C060B0061060A0057060BBF
:10135000004C060A0042060A0038060A002E060A59
:101360000024060A001A060A001006090007060AE9
:1013700000FD050900F4050900EB050900E2050977
:1013800000D9050900D0050900C7050900BE0509F7
:1013900000B5050800AD050800A50509009C050875
:1013A00000940508008C050800840508007C0508E9
:1013B00000740508006C050700650508005D050759
:1013C00000560508004E05070047050700400508C0
:1013D0000038050700310507002A05070023050727
:1013E000001C050600160507000F05070008050686
:1013F0000002050700FB040600F5040700EE0406E2
:1014000000E8040600E2040700DB040600D5040639
:1014100000CF040600C9040600C3040600BD04068C
:1014200000B7040600B1040500AC040600A60406DB
:1014300000A00405009B0406009504050090040626
:10144000008A04050085040500800406007A04056E
:101450000075040500700405006B040500660405B2
:1014600000610405005C04050057040500520405F2
:10147000004D04050048040500430405003E040433
:10148000003A04050035040500300404002C04056E
:101490000027040400230405001E0404001A0404A9
:1014A0000016040500110404000D040400090405DD
:1014B000000404040000040400FC030400F8030416
:1014C00000F4030400F0030400EC030400E8030448
:1014D00000E4030400E0030400DC030400D8030478
:1014E00000D4030400D0030400CC030400C80303A9
:1014F00000C503030024F404D9201BC40C5C0E981F
:1015000004C4095F0265077101F405F900FB04B327
:101510000048048700C103690058035500030345D0
:1015200000BE023A008402310053022A002902253B
:101530000004022000E4011C00C8011900AF0117DB
:101540000098011400840113007101100061011062
:101550000051010E0043010D0036010B002B010B61
:101560000020010B00150109000C0109000301080E
:1015700000FB000800F3000800EB000700E4000691
:1015800000DE000600D8000600D2000600CC0005F0
:1015900000C7000500C2000500BD000400B900043A
:1015A00000B5000400B1000400AD000400A900046F
:1015B00000A5000300A20003009F0004009B00039D
:1015C00000980003009500020093000300900003C0
:1015D000008D0002008B00030088000200860002DC
:1015E0000084000300810002007F0002007D0002F1
:1015F000007B000200790002007700010076000203
:10160000007400020072000100710002006F00020D
:10161000006D0001006C0002006A00010069000218
:10162000006700010066000100650001006400021F
:10163000006200010061000100600001005F000223
:10164000005D0001005C0001005B0001005A000128
:101650000059000100580001005700010056000128
:101660000055000100540001005300000053000128
:10167000005200010051000100500001004F000124
:10168000004E0000004E0001004D0001004C000122
:10169000004B0000004B0001004A0001004900011E
:1016A000004800000048000100470001004600001B
:1016B0000046000100450000004500010044000113
:1016C000004300000043000100420000004200010E
:1016D000004100000041000100400001003F000007
:1016E000003F0001003E0000003E0001003D000000
:1016F000003D0001003C0000003C0000003C0001F7
:10170000003B0000003B0001003A0000003A0001ED
:1017100000390000003900010038000000380000E6
:1017200000380001003700000037000100360000DB
:1017300000360000003600010035000000350000D2
:1017400000350001003400000034000000340001C6
:1017500000330000003300000033000100320000BD
:1017600000320000003200010031000000310000B2
:1017700000310001003000000030000000300001A6
:10178000002F0000002F0000002F0000002F00019C
:10179000002E0000002E0000002E0001002D000091
:1017A000002D0000002D0000002D0001002C000085
:1017B000002C0000002C0000002C0001002B000079
:1017C000002B0000002B0000002B0001002A00006D
:1017D000002A0000002A0000002A00010029000061
:1017E0000029000000290000002900000029000154
:1017F0000028000000280000002800000028000049
:10180000002800010027000000270000002700003A
:10181000002700000027000100260000002600002D
:101820000026000000260000002600010025000020
:101830000025000000250000002500000025000014
:101840000025000100240000002400000024000006
:1018500000240000002400010023000000230000F9
:1018600000230000002300000023000000230000EC
:1018700000230001002200000022000000220000DE
:1018800000220000002200000022000100210000D0
:1018900000210000002100000021000000210000C4
:1018A00000210000002100010020000000200000B5
:1018B00000200000002000000020000000200000A8
:1018C0000020000000200001001F0000001F000099
:1018D000001F0000001F0000001F0000001F00008C
:1018E000001F0001001E0000001E0000001E00007E
:1018F000001E000000043700001E290000511B00DC
:10190000005810000010090000CC0400007802000C
:101910000041010000416D6178204500416D617812
:10192000204500416D6178205A00416D6178205A50
:1019300000416D6178205900416D61782059004166
:101940006D6178205800416D6178205800412D74F8
:10195000726176656C00412D74726176656C004130
:101960002D7265747261637400412D7265747261C9
:10197000637400416363656C00416363656C004D93
:101980006F74696F6E0056652D6A65726B005665DF
:101990002D6A65726B0056652D6A65726B00567A0A
:1019A0002D6A65726B00567A2D6A65726B005679E6
:1019B0002D6A65726B0056792D6A65726B005679D7
:1019C0002D6A65726B0056782D6A65726B005678C9
:1019D0002D6A65726B0056782D6A65726B004D6FCB
:1019E00074696F6E004573746570732F6D6D00457B
:1019F00073746570732F6D6D005A73746570732FF7
:101A00006D6D005A73746570732F6D6D005973742A
:101A10006570732F6D6D005973746570732F6D6DE4
:101A2000005873746570732F6D6D00587374657012
:101A3000732F6D6D004D6F74696F6E005374657018
:101A4000732F6D6D004A65726B00416363656C6551
:101A5000726174696F6E0056656C6F6369747900AA
:101A6000436F6E74726F6C004C6F6164206D6D001B
:101A70004C6F6164206D6D004C6F6164206D6D0072
:101A8000556E6C6F6164206D6D00556E6C6F616496
:101A9000206D6D00556E6C6F6164206D6D00466940
:101AA0006C2E204469612E0046696C2E20446961C9
:101AB0002E004F6666004F6E20004520696E206D37
:101AC0006D3300436F6E74726F6C0025753A25306C
:101AD000327500253032753A25303275002575642F
:101AE00020253032753A2530327500202020202004
:101AF00020005A0059002020202000580009200012
:101B00000000000000000000000000003FFFF000A7
:101B1000000000000000000000000038007000001D
:101B20000000000000000000000030FC3000000059
:101B300000000000000000000020FC100000000079
:101B400000000000000000002078100000000000ED
:101B50000000000000000020301000000000000025
:101B60000000000000002C00D03FC000000000007A
:101B700000002082002E31D07FE000000000000035
:101B8000001041002F7BD07FE0000000000000002B
:101B90001041002F7BD07FE00000000000000020FB
:101BA00082002E31D03FC000000000000000410440
:101BB000002C00D03FC000000000000000820800A0
:101BC0002030107FE00000000000000082080020AC
:101BD00078107FE00000000000000041040020FCBD
:101BE000107FE00000000000000020820030FC3088
:101BF0001F80000000000000000000003800700F8F
:101C00000000000000000000FFFFC03FFFF00600E2
:101C100000000000000000FFFFC000000000000006
:101C20000000000000000000003FFFF00000000086
:101C300000000000000000003800700000000000FC
:101C400000000000000000318630000000000000AD
:101C500000000000000023871000000000000000CA
:101C60000000000000278790000000000000000036
:101C7000000000002F87D0000000000000000000DE
:101C80000000002F03D03FC0000000000000002033
:101C900082002030107FE0000000000000001041B2
:101CA000002078107FE000000000000000104100DC
:101CB0002078107FE000000000000000208200205B
:101CC00030103FC0000000000000004104002F035E
:101CD000D03FC0000000000000008208002F87D025
:101CE0007FE0000000000000008208002787907F4E
:101CF000E0000000000000004104002387107FE0A6
:101D0000000000000000002082003186301F8000AB
:101D10000000000000000000003800700F0000000C
:101D20000000000000FFFFC03FFFF00600000000C1
:101D300000000000FFFFC000000000060900FE00D8
:101D40000000000001090008FE0000050808060068
:101D50000040F0C88888987810050808060000C080
:101D6000F88888888888F80505050600012030F87D
:101D700030200508080600002070F820202020E010
:101D80000509090600FF2070A8A8B88888702005FA
:101D900009090600FFE080C0B0A8283028280509FE
:101DA000090600FFF8A88888888888A8F8050A0A24
:101DB0000600FE205050505088A8A88870030303E6
:101DC00006000340A040205A3A0020593A00204320
:101DD0006F756E7420583A0020453A00205A3A0038
:101DE00020593A00583A003A004361703A00205AAC
:101DF00000205900580020204D61783A2000205AD8
:101E000000205900580020204D696E3A20004F6E86
:101E100020004F666600536F667420656E647374AD
:101E20006F70733A2000454550524F4D204F4B0A7A
:101E3000004D3630303A20546F6F20636F6C640071
:101E4000486F74656E6420746F6F20636F6C640AF2
:101E500000496E736572742066696C616D656E749D
:101E600020616E6420707265737320627574746F84
:101E70006E0A00507265737320627574746F6E2001
:101E8000746F2068656174206E6F7A7A6C650A00E1
:101E9000496E736572742066696C616D656E74203D
:101EA000616E6420707265737320627574746F6EF6
:101EB00020286F72204D313038290A00496E736531
:101EC00072742066696C616D656E7420616E642049
:101ED000707265737320627574746F6E20286F72F0
:101EE000204D313038290A0043616E6E6F742065D1
:101EF0006E746572207375626469723A2000022EF6
:101F00002E000152656672657368004D61696E004E
:101F10004D36303020423020542564004D3730316A
:101F200020542564004D373032203B2564004D3766
:101F3000303220542564004368616E67652066690D
:101F40006C616D656E7400507265686561742041E6
:101F50004253005072656865617420504C410043E3
:101F600068616E67652066696C616D656E740050AE
:101F700052494E542050415553454400554E4C4F04
:101F800041442046494C414D454E54004C4F41443C
:101F90002046494C414D454E5400507572676520AE
:101FA0006D6F726500436F6E74696E7565005245A2
:101FB00053554D45204F5054494F4E533A00202021
:101FC0004E6F7A7A6C653A20006368616E676500CF
:101FD0006F66207468652066696C616D656E74005B
:101FE0005761697420666F72207374617274002087
:101FF000204E6F7A7A6C653A2000200066696C6129
:102000006D656E7420756E6C6F61640057616974E4
:1020100020666F720020204E6F7A7A6C653A20003D
:102020002000506C6561736520776169742E2E2ED7
:102030000048656174696E67206E6F7A7A6C65001E
:1020400020204E6F7A7A6C653A2000200068656126
:1020500074206E6F7A7A6C652E00507265737320EF
:10206000627574746F6E20746F0020204E6F7A7AE0
:102070006C653A2000746F20636F6E74696E7565CD
:102080002E2E2E00616E642070726573732062754F
:1020900074746F6E00496E736572742066696C614A
:1020A0006D656E74004261636B004E6578742063E9
:1020B0006F726E6572004C6576656C696E67204460
:1020C0006F6E6521004D6F7665205A0047323920CA
:1020D0005332004E65787420506F696E7400256924
:1020E000202F2025750047323920533100473239DF
:1020F00020533200436C69636B20746F2042656724
:10210000696E00486F6D696E672058595A004732F2
:10211000380053746F72652073657474696E6773E9
:10212000004C6F61642073657474696E6773004C52
:102130006576656C20636F726E65727300426564CC
:10214000205A00426564205A004661646520486553
:1021500069676874004661646520486569676874EA
:10216000004F6666004F6E2000426564204C657625
:10217000656C696E67004C6576656C20626564000D
:1021800050726570617265004D343238005072656E
:102190006865617420504C4100436F6F6C646F77C9
:1021A0006E004368616E67652066696C616D656E7F
:1021B00074004368616E67652066696C616D656E69
:1021C00074004D3630302042300044697361626CD7
:1021D00065207374657070657273004D38340053F8
:1021E000657420686F6D65206F6666736574730033
:1021F00050726568656174204142530042656420F5
:102200004C6576656C696E67004175746F20686F08
:102210006D6500473238004D6F76652061786973CF
:10222000004D61696E0020746F6F206C6F6E6720C7
:10223000657874727573696F6E2070726576656EFD
:102240007465640A0020636F6C642065787472752D
:1022500073696F6E2070726576656E7465640A00CE
:10226000486F6D696E67206661696C656400206EF9
:102270006F7420656E74657265642E0A004E6F205F
:102280006D6F76652E00456E642066696C65206C06
:102290006973740A00426567696E2066696C65201F
:1022A0006C6973740A00286E6F2066696C6529007A
:1022B0005344207072696E74696E67206279746528
:1022C00020004E6F74205344207072696E74696EE2
:1022D000670A0043757272656E742066696C653AB0
:1022E00020002569730025696D2025697300256923
:1022F000682025696D20256973002569642025699A
:10230000682025696D202569730025697920256974
:1023100064202569682025696D2025697300507245
:10232000696E742074696D653A200050726F74652F
:10233000637465642050696E0A006265640A002C4B
:102340002073797374656D2073746F707065642188
:10235000204865617465725F49443A2000426564B3
:102360002068656174696E67206661696C656400E8
:1023700048656174696E67206661696C65640045D3
:10238000312048656174696E67206661696C6564B7
:102390000048656174696E67206661696C656400F8
:1023A00070012C0190012701B0012201C0011D0123
:1023B000F00118011002130130020E016002090140
:1023C00090020401C002FF000003FA004003F50080
:1023D0008003F000D003EB002004E6007004E1006D
:1023E000E004DC004005D700C005D2004006CD0067
:1023F000D006C8008007C3003008BE00F008B9004E
:10240000C009B400B00AAF00B00BAA00D00CA50000
:10241000000EA000500F9B00C010960050129100BB
:1024200000148C00C0158700B0178200B0197D0021
:10243000D01B7800001E730040206E0090226900BF
:10244000F024640040275F0090295A00E02B5500DB
:10245000102E500020304B0010324600E033410077
:1024600090353C001037370070383200A0392D000D
:10247000B03A2800A03B2300603C1E00103D19002C
:10248000903D1400103E0F00703E0A00C03E050053
:10249000003F0000403FFBFF803FF6FFC03FF1FFE1
:1024A000453120544845524D414C2052554E4157DC
:1024B00041590042454420544845524D414C205218
:1024C000554E4157415900546865726D616C2052F8
:1024D000756E61776179004531204572723A204D01
:1024E000415854454D50004572723A204D41585460
:1024F000454D5020424544004D415854454D5020D3
:10250000747269676765726564004531204572724F
:102510003A204D494E54454D50004572723A204D77
:10252000494E54454D5020424544004D494E544576
:102530004D5020747269676765726564004D383468
:1025400020582059205A204500202F0020204E6F6F
:102550007A7A6C653A2000200066696C616D656E60
:1025600074206C6F6164005761697420666F72003B
:1025700020204E6F7A7A6C653A2000200066696CE4
:10258000616D656E7420707572676500576169745E
:1025900020666F7200746F20726573756D650057E9
:1025A00061697420666F72207072696E7400000633
:1025B0000900FE0701920321207FFF07FF07FF00AC
:1025C000000006000001070706020080808080806E
:1025D0000080030202060105A0A00507070600000F
:1025E0005050F850F850500507070600002078A01A
:1025F0007028F020050707060000C0C8102040988A
:10260000180507070600006090A040A89068020324
:1026100003060104C0408003070706010020408034
:1026200080804020030707060100804020202040D2
:102630008005050506000120A870A82005050506EF
:1026400000012020F820200203030602FFC0408082
:10265000050101060003F8020202060200C0C005DF
:102660000505060001081020408005070706000048
:102670007088888888887003070706010040C0407A
:10268000404040E005070706000070880870808021
:10269000F8050707060000F81020100808F00507E5
:1026A0000706000010305090F810100507070600CC
:1026B00000F880F0080888700507070600007080A1
:1026C00080F0888870050707060000F808102020B1
:1026D000202005070706000070888870888870052C
:1026E000070706000070888878080870020505064C
:1026F0000200C0C000C0C00206060602FFC0C00043
:10270000C0408004070706000010204080402010D1
:10271000050303060002F800F8040707060100801D
:102720004020102040800507070600007088081030
:1027300020002005070706000070880868A8A87018
:10274000050707060000708888F88888880507074D
:10275000060000F08888F08888F00507070600006A
:1027600070888080808870050707060000F08888E0
:10277000888888F0050707060000F88080F08080D0
:10278000F8050707060000F88080F08080800507C4
:1027900007060000708880B8888870050707060063
:1027A00000888888F88888880107070602008080EA
:1027B0008080808080050707060000381010101008
:1027C00090600507070600008890A0C0A0908805CB
:1027D0000707060000808080808080F805070706D4
:1027E000000088D8A8888888880507070600008820
:1027F00088C8A89888880507070600007088888818
:10280000888870050707060000F08888F0808080BF
:1028100005070706000070888888A89068050707E4
:10282000060000F08888F0A09088050707060000E1
:10283000788080700808F0050707060000F820205F
:1028400020202020050707060000888888888888BF
:1028500070050707060000888888888850200507CB
:10286000070600008888888888A8500507070600A2
:10287000008888502050888805070706000088884F
:102880008850202020050707060000F80810204087
:1028900080F8030707060100E08080808080E00563
:1028A0000505060001804020100803070706010007
:1028B000E02020202020E0050303060004205088AB
:1028C000050101060000F80202020602058040052B
:1028D00005050600007008788878050707060000DF
:1028E0008080B0C88888F0050505060000708080EB
:1028F000887005070706000008086898888878052A
:1029000005050600007088F88070050707060000BE
:102910003048E0404040400506060600FF708888C9
:102920007808700507070600008080B0C88888888E
:10293000010707060200800080808080800308086D
:102940000601FF200020202020A0400407070600E9
:1029500000808090A0C0A090030707060100C0403F
:1029600040404040E0050505060000D0A8A8A8A802
:10297000050505060000B0C888888805050506001D
:102980000070888888700506060600FFF08888F0C9
:1029900080800506060600FF788888780808050507
:1029A00005060000B0C8808080050505060000709F
:1029B000807008F00407070600004040E0404040F7
:1029C0003005050506000088888898680505050615
:1029D000000088888850200505050600008888A822
:1029E000A8500505050600008850205088050606F9
:1029F0000600FF888888780870050505060000F83D
:102A0000102040F8030707060100204040804040A6
:102A100020010707060200808080808080800307F5
:102A20000706010080404020404080050202060069
:102A30000268900000000600007C3C3E5E2B3D3F9B
:102A40002F5B5D3B2C2A225C001000C90210012C78
:102A5000014001220170011801B0010E01F00104D2
:102A6000015002FA00B002F0003003E600D003DCAF
:102A7000009004D2007005C800A006BE000008B493
:102A800000B009AA00D00BA000600E960060118C67
:102A9000000015820020197800C01D6E00A022647D
:102AA00000B0275A00902C500000314600E0343C22
:102AB0000010383200903A2800603C1E00A03D14FF
:102AC00000803E0A00203F00002042403A002040A3
:102AD0003A00486F6D65202573257325732066695C
:102AE000727374002066697273740A005A00590088
:102AF0005800486F6D65200057726974696E6720D1
:102B0000746F2066696C653A20006F70656E206690
:102B100061696C65642C2046696C653A20006F70B1
:102B2000656E206661696C65642C2046696C653A47
:102B3000200046696C652073656C65637465640A82
:102B4000002053697A653A200046696C65206F70F1
:102B5000656E65643A20002066696C653A20006401
:102B60006F696E67006672657368004E6F7720004C
:102B7000454E4420535542524F5554494E450A0044
:102B80002220706F73002220706172656E743A2289
:102B900000535542524F5554494E452043414C4CE9
:102BA000207461726765743A22004B494C4C45446D
:102BB0002E2000747279696E6720746F2063616CD7
:102BC0006C207375622D67636F64652066696C6540
:102BD00073207769746820746F6F206D616E79203F
:102BE0006C6576656C732E204D4158206C6576655A
:102BF0006C2069733A0043616E6E6F74206F70656C
:102C00006E2073756264697220006563686F3A00B4
:102C10004368616E67652066696C616D656E7400FE
:102C20004368616E67652066696C616D656E7400EE
:102C30004D363030204230004261627973746570E5
:102C4000205A00466C6F7700466C6F770046616EC5
:102C50002073706565640046616E207370656564FD
:102C60000042656400426564004E6F7A7A6C6500CC
:102C70004E6F7A7A6C6500466164652048656967C5
:102C8000687400466164652048656967687400423D
:102C90006564205A00426564205A0053706565647B
:102CA000005370656564004D61696E00507265681F
:102CB00065617420504C4120456E64005072656817
:102CC00065617420504C4120426564005072656813
:102CD00065617420504C41005072657061726500EE
:102CE000507265686561742041425320456E6400EE
:102CF00050726568656174204142532042656400EA
:102D0000507265686561742041425300507265706D
:102D1000617265004572726F723A0046696C652097
:102D200064656C657465643A0044656C6574696FCC
:102D30006E206661696C65642C2046696C653A207A
:102D4000006F70656E206661696C65642C20466951
:102D50006C653A20004D3234004D3233202573002B
:102D6000556E6B6E6F776E20636F6D6D616E643A3A
:102D7000202200486F74656E6420746F6F20636F4B
:102D80006C640A006F70656E206661696C65642C06
:102D90002046696C653A200057726974696E672035
:102DA000746F2066696C653A200053442063617239
:102DB00064206F6B0A006F70656E526F6F742066CF
:102DC00061696C65640A00766F6C756D652E696E5D
:102DD0006974206661696C65640A00534420696EF9
:102DE0006974206661696C0A0048617264636F648B
:102DF00065642044656661756C74205365747469FC
:102E00006E6773204C6F616465640A00B80B000044
:102E1000B80B00006400000010270000000096437B
:102E2000000096430000A0400000C8410000A042FE
:102E30000000A0420000C8430080CF430A4D6561F6
:102E4000737572656420706F696E74733A0A005A04
:102E5000206F66667365743A20004E756D20582C9D
:102E6000593A20332C330A00290A0020627974650C
:102E7000733B2063726320002073746F726564205B
:102E800073657474696E67732072657472696576B0
:102E90006564202800202863616C63756C6174652B
:102EA0006429210A0020213D2000454550524F4D04
:102EB00020435243206D69736D61746368202D2037
:102EC0002873746F7265642920002053697A653A0B
:102ED0002000496E6465783A2000204D61726C696B
:102EE0006E3D563535290A0028454550524F4D3D17
:102EF00000454550524F4D2076657273696F6E20C4
:102F00006D69736D617463682000627573793A202E
:102F100070617573656420666F7220696E70757478
:102F20000A00627573793A20706175736564206672
:102F30006F7220757365720A00627573793A20703A
:102F4000726F63657373696E670A004B494C4C4539
:102F5000442E20004B494C4C2063617573656420FE
:102F60006279204B494C4C20627574746F6E2F70DF
:102F7000696E0A004B494C4C45442E20004B494C8D
:102F80004C2063617573656420627920746F6F20D3
:102F90006D75636820696E61637469766520746914
:102FA0006D65202D2063757272656E7420636F6D80
:102FB0006D616E643A20004D36303000506C6561B2
:102FC0007365207265736574005052494E544552C2
:102FD0002048414C544544005072696E746572201B
:102FE00068616C7465642E206B696C6C28292063A1
:102FF000616C6C6564210A000000000000000000A4
:1030000000000000000048420000484200008040EC
:10301000000000005761726E696E673A20486F6D5C
:10302000696E672042756D702044697669736F72AE
:10303000203C20310A000202040000A0400000A051
:10304000400000004000009643000096430000C886
:1030500043FFFFFF426F6E64746563682043522D27
:103060003130732052656164792E005072696E743C
:10307000696E672E2E2E005072696E742070617515
:10308000736564004D313036205025692053256921
:10309000004D31303920532569004D3139302053EE
:1030A0002569004D3432302053300A4732382058D9
:1030B00020590053746F70207072696E74005265ED
:1030C00073756D65207072696E7400506F776572EC
:1030D0002D4C6F7373205265636F76657279005063
:1030E00072696E742061626F72746564004D323172
:1030F000004E6F2053442063617264004368616E28
:1031000067652053442063617264004D3231005082
:1031100072696E742066726F6D2053440053746F31
:1031200070207072696E7400496E69742E20534469
:10313000206361726400526573756D6520707269F9
:103140006E74005061757365207072696E7400430F
:103150006F6E74726F6C00507265706172650054AE
:10316000756E6500496E666F2073637265656E00EB
:103170004261627973746570205A00526573656E9E
:10318000643A20006F6B0020746F6F206C6F6E6765
:1031900020657874727573696F6E207072657665DC
:1031A0006E7465640A0020636F6C642065787472C5
:1031B0007573696F6E2070726576656E7465640AEA
:1031C000004D6F76652058004D6F76652059004D93
:1031D0006F7665205A004578747275646572004D8B
:1031E0006F766520302E316D6D004D6F7665203124
:1031F0006D6D004D6F76652031306D6D004D6F76D1
:103200006520617869730045787472756465720031
:103210004D6F7665205A004D6F76652059004D6FD1
:1032200076652058004578747275646572004D6F3C
:103230007665205A004D6F76652059004D6F766592
:103240002058005072657061726500496E6974693A
:10325000616C697A6520454550524F4D00436F6E51
:1032600074726F6C000067FEA00011241FBECFEFC8
:10327000D1E2DEBFCDBF00E00CBF13E0A0E0B2E0C2
:10328000ECE3FCE102E00BBF02C007900D92A63810
:10329000B107D9F72BE1A6E8B3E001C01D92AC3D20
:1032A000B207E1F719E1C4E3D9E100E006C02197D4
:1032B0000109802FFE010F94700DC333D10780E008
:1032C0000807A9F70E94D8F60D940D0E0C94000083
:1032D0002F923F924F925F926F927F928F929F9226
:1032E000AF92BF92CF92DF92EF92FF920F931F9314
:1032F000CF93DF93CDB7DEB7C355D1090FB6F8949E
:10330000DEBF0FBECDBF21E02093A21A8091151B16
:103310008D3409F416C4843511F40C940E2E8734C0
:1033200011F00C94522E8091131B9091141B8C3130
:10333000910509F40CC164F48430910509F4A8C026
:103340001CF4029738F1F9C34B9709F4D0C0F5C3C8
:103350008A35910509F481C344F48D31910509F44E
:10336000FBC08A9709F4F5C2E8C38B35910509F4CF
:1033700078C38C35910509F0E0C35AE5252E52E05B
:10338000352E62EBC62E6AE1D62EE12CF12C00E040
:1033900010E0A4C380911E02882311F40C94542ED3
:1033A0001AE5812E12E0912E0EEBC02E0AE1D02EEE
:1033B00089E1E82E89E0F82E95EAA92E9BE1B92E45
:1033C00000E010E0D4018D914D010E94DD39882389
:1033D00021F10E94AA39F801E957FC4F20812111FF
:1033E00004C020918B03222341F0F7012081318119
:1033F000428153810F943C0B0AC00330110539F010
:10340000D5012D913D914D915C910F943B0BF601AF
:1034100060837183828393830AC0F70180819181E5
:10342000A281B381F60180839183A283B3830F5F6E
:103430001F4FF4E0CF0ED11C24E0E20EF11C34E06B
:10344000A30EB11C0430110509F0BCCF86E40E9424
:10345000243A8823C9F00E94AA3920E030E0A9016B
:103460000F949F0C181684F40E94AA3920E030E0D3
:1034700040E752E40F94B30B609308027093090283
:1034800080930A0290930B020E94B6E70C94542E8C
:1034900080E50E94243A882329F00E946A396B0152
:1034A0007C0103C0C12CD12C760183E50E94243A13
:1034B000882361F00E94AA3920E030E04AE754E412
:1034C0000F9497080F94200C6B017C010E94839548
:1034D0008091FD14811105C060E087EA92E00E94AE
:1034E0008DB1C701B6010E94FA990C94542E0E9426
:1034F00097C381110C94542E80E090E0A0E2B1E4D7
:1035000089839A83AB83BC8380E090E0A1E9B3E434
:103510008D839E83AF83B88780E090E0A0EAB1E41A
:1035200089879A87AB87BC8780E50E94243A8823E5
:1035300019F00E947A3901C060E06D87BE016F5FAB
:103540007F4FCE010D960E94E4D60C94542E80E05D
:103550000E94149C0C94542E83E50E94243A8823E4
:1035600011F10E948A39863070F0E2E6F3E084912E
:103570008F010F5F1F4F882311F40C94542E0E946B
:103580004A3AF801F4CF833009F458C134F4813059
:1035900071F1823009F43FC006C0843009F4B0C133
:1035A000853009F4BDC10E94E69A882399F0809184
:1035B0001809811103C06AE273E002C066E273E099
:1035C0008AE393E00E94E4628AE00E944A3A0E9401
:1035D0006BFFBBC1E2E4F3E084918F010F5F1F4FEB
:1035E000882309F4B2C10E944A3AF801F5CF0E943B
:1035F0008BD710920102109200028091DB10811192
:103600000AC08FE293E090935E1A80935D1A0E9445
:10361000793A0C94542E809100029091010297FF08
:103620000EC0E6E0F3E084918F010F5F1F4F882307
:1036300011F40C94542E0E944A3AF801F4CF0097EA
:10364000A1F4809157028093860319821A821B820B
:103650001C821D861E861F86188ABE016F5F7F4FE3
:10366000CE010D960E94F59B2BC0815063E00F9414
:10367000200D80FF03C022E0291B922F292F990FD4
:10368000330BF901EE0FFF1FE20FF31FE80FF11DDF
:1036900087FDFA95EE0FFF1FEE0FFF1FE458F54E62
:1036A0008091210990912209A0912309B0912409C8
:1036B00080839183A283B383809186038093570292
:1036C0008091000290910102893091050CF067C051
:1036D000109257029C012F5F3F4F309301022093BD
:1036E000000263E00F94200D80FF03C022E0291B3D
:1036F000922F4091210950912209609123097091E4
:1037000024094D875E876F87788B19821A821B8206
:103710001C8244E0840290011124B9016258784E61
:103720004B01DB012D913D914D915C91B4E09B02E9
:10373000C0011124FC01E657F84E5F0160817181E0
:1037400082819381DE0111966D01E12CF12C00EA5A
:1037500010E40E94073819821A821B821C82B6016B
:10376000CE010D960E94F59BF50180819181A28189
:10377000B3818093190990931A09A0931B09B09300
:103780001C09F40180819181A281B38180931D097C
:1037900090931E09A0931F09B093200944C080E0B4
:1037A00090E0A0EAB0E48093210990932209A093CD
:1037B0002309B09324090E94B0370E9483958FEFAC
:1037C0009FEF9093010280930002E2EFF2E0849178
:1037D0008F010F5F1F4F882321F00E944A3AF801A2
:1037E000F6CF83E992E09A83898304E610E01E878E
:1037F0000D87BE016F5F7F4FCE010D960E9432C3D1
:103800008AEB92E09A8389831E870D87BE016F5FE2
:103810007F4FCE010D960E9432C381E00E94149C1E
:1038200081E00E94169B1092DB1060910002709163
:103830000102693071050CF47BC078C088E50E94F4
:10384000243A8823A1F00E947A391FEF160F133013
:10385000A8F0EBEDF2E084918F010F5F1F4F8823FA
:1038600011F40C94542E0E944A3AF801F4CF88E5E2
:103870000E944A3A0E9405FE0C94542E89E50E944B
:10388000243A8823A1F00E947A390FEF060F033003
:10389000A8F0E4ECF2E084918F010F5F1F4F8823C2
:1038A00011F40C94542E0E944A3AF801F4CF89E5A1
:1038B0000E944A3A0E9405FE0C94542E8AE50E940A
:1038C000243A8823B1F00E94AA39212F30E0F9016F
:1038D000EE0FFF1FE20FF31FE00FF11DEE0FFF1FB2
:1038E000EE0FFF1FE458F54E60837183828393834C
:1038F0002CC08AE50E944A3A0E9405FE0C94542E80
:103900008AE50E94243A8823A1F30E94AA39609391
:10391000DC107093DD108093DE109093DF1015C0E3
:1039200080E00E94169B0E948BD70FC069E070E078
:1039300085EB92E00E94CB6269E070E080EB92E060
:103940000E94CB628AE00E944A3A0E94BD7A0C949F
:10395000542E80911E02882311F40C94542E89E475
:103960000E94243AF82E882321F00E947A39062FEB
:1039700001C000E08AE40E94243AE82E882331F056
:103980000E947A39162FF11004C00AC010E0FF20FF
:10399000B1F0033010F40C94AA33E9E7F3E003C06C
:1039A0001330D8F70CC084918F010F5F1F4F88230D
:1039B00011F40C94542E0E944A3AF801F4CF0E945C
:1039C000363AFF2091F024E00202F0011124E6577C
:1039D000F84E80819181A281B3818093BE1A909329
:1039E000BF1AA093C01AB093C11AEE2091F034E030
:1039F0001302F0011124E258F84E80819181A281D6
:103A0000B3818093C21A9093C31AA093C41AB0933F
:103A1000C51A80E50E94243A882319F00E949B3938
:103A200003C080E50E94DD3986E40E94243A8823A1
:103A300009F42ACD0E94AA396B017C0120E030E014
:103A4000A9010F949F0C18160CF01ECD20E030E059
:103A500040E752E4C701B6010DCD10928B030C94E0
:103A6000542E20938B030C94542E0E94AA392B01C0
:103A70003C01133059F0F701EB55F44E20813181B0
:103A8000428153810F943B0B2B013C01F701E75E10
:103A9000F64F2081318142815381C301B2010F94DD
:103AA0003B0B4B015C012DEB37E346E855EB0F94E4
:103AB0009F0C87FD1BC02DEB37E346E855E3C5019E
:103AC000B4010F94320818168CF01F5FB4E0CB0ECF
:103AD000D11CE4E0EE0EF11C143039F1D1018D91CE
:103AE0001D010E94243A882381F3BFCF133051F483
:103AF0004092250950922609609227097092280960
:103B000001E0E3CFA5019401F6016081718182811A
:103B100093810F943C0BD6016D937D938D939C9371
:103B20001397812F0E94E338D0CF002309F40DCFE3
:103B300085E299E00E9438C408CF0E94CBD00C9453
:103B4000542E8091131B9091141B8337910509F417
:103B5000F2C40CF0C0C08B34910509F48BC20CF098
:103B600060C08831910509F44DC28CF58231910510
:103B700009F408C484F497FF02C00C940B2E823021
:103B800091050CF4AAC1419711F00C940B2E0E94E0
:103B9000EC990C94542E8531910509F418C244F423
:103BA000449711F00C940B2E0E9488980C94542E7C
:103BB0008631910509F40FC2479711F00C940B2E32
:103BC0000E949FCDE091111BF091121B0EC28D310E
:103BD000910511F40C94542E94F48A31910509F452
:103BE0001BC20CF413C28B31910509F419C24C9716
:103BF00011F00C940B2E0E948C970C94542E8F3144
:103C0000910509F433C20CF40FC28032910509F416
:103C100025C28A9711F00C940B2E0E9435960C94B5
:103C2000542E8936910509F4EDC25CF58335910572
:103C300009F4A4C39CF48D34910509F423C20CF457
:103C40001DC28135910509F484C38235910511F0B7
:103C50000C940B2E10928A030C94542E85359105EA
:103C600009F4C5C30CF48EC38C35910509F4DAC38D
:103C70008836910511F00C940B2E0E94EF950C9450
:103C8000542E8E36910509F401C284F48B369105C9
:103C900009F44DC30CF447C38C36910509F47AC27C
:103CA0008D36910509F4F0C20C940B2E80379105E6
:103CB00009F474C20CF4FDC18137910509F476C290
:103CC0008237910511F00C940B2E0E9483950E946F
:103CD000BD7A0C94542E8232F1E09F0711F40C94BB
:103CE0006D270CF076C0883C910509F4E3C5ACF56E
:103CF0008937910509F45EC5DCF48637910509F42E
:103D000089C434F48537910509F473C40C940B2EDF
:103D10008737910509F4CAC48837910511F00C94CE
:103D20000B2E81E080932104809320040C94542E68
:103D30008139910509F444C534F48C38910509F4AE
:103D4000BFC20C940B2E8B39910509F476C28E3BC1
:103D5000910509F4D3C20C940B2E8E3C910509F405
:103D600021C7F4F48B3C910509F405C67CF4893C29
:103D7000910511F00C940B2E32E4E32E30E1F32E7A
:103D80000AE512E044E0D42ED00EDCC58C3C91054F
:103D900009F40FC68D3C910509F483C60C940B2ED3
:103DA0008C3D910509F4FEC74CF4833D910511F05B
:103DB0000C940B2E0E949B790C94542E8D3D9105F2
:103DC00009F4F3C7823E910511F40C9442270C9438
:103DD0000B2E8C3A31E0930709F406C7F4F58336CD
:103DE00051E0950711F40C94572BDCF48D3271E0FF
:103DF000970711F40C94A3273CF48C32914011F4F2
:103E00000C947A270C940B2E8E32E1E09E0711F46D
:103E10000C9444288F32914011F40C9498280C94FF
:103E20000B2E8A3921E0920709F4BCC14CF4803989
:103E3000914011F00C940B2E0E9483950C94542EFB
:103E4000843A51E0950711F40C94702B853A914017
:103E500011F40C94822C0C940B2E883572E0970789
:103E600011F40C946A2DFCF4853FB1E09B0711F42A
:103E70000C94642D4CF4843F914011F00C940B2E63
:103E80000E946E3F0C94542E863F21E0920711F45D
:103E90000C94672D883F914011F00C940B2E0E94DA
:103EA000E6780C94542E8B3843E0940711F40C946C
:103EB000542E3CF48B35924011F40C946D2D0C94DF
:103EC0000B2E803A73E0970709F4CCC0873E9340ED
:103ED00011F40C94F62D0C940B2EA090111BB090A5
:103EE000121B80E50E94243A882359F00E946A3907
:103EF0006B017C0111E0672B682B692B31F410E01A
:103F000004C010E0C12CD12C760183E50E94243A34
:103F1000882311F40C94592E0E94AA3920E030E035
:103F20004AE754E40F9497080F94200C6B017C012E
:103F300011110BC0672B682B692B39F4A114B10444
:103F400021F0F5018081811102C010E001C011E073
:103F50000E948395112329F061E0C5010E94C7B139
:103F600005C060E088E993E00E948DB183E0809312
:103F7000A21A81E080936C11C114D104E104F10410
:103F8000F1F00E949356C60ED71EE81EF91E0E943D
:103F90009356DC01CB018C199D09AE09BF09B7FD11
:103FA00006C00E94ABE510926C110C94542E8091C7
:103FB0006C118823B1F380E00E9463E0E8CF809128
:103FC0006C11882371F380E00E9463E0F8CF0E94B7
:103FD00015CE0C94542E1092B6171092B7170C945D
:103FE000542E803209F41082319680818111F9CFEC
:103FF00040E061E08091111B9091121B0E94B5C1BD
:104000000C94542E0E9436980C94542E1092B6178D
:104010000E94E95A0C94542E0E941C980C94542E21
:104020000E9494970C94542E8091B717882311F412
:104030000C94542E8EE799E10E94D2468EE799E1C6
:104040000E9498B51092B5171092B4178091111B69
:104050009091121B0E94C5CB0C94542E0E947D9609
:104060000C94542E0E9472960C94542E0E94BD966D
:104070000C94542E0E94C85A0C94542E0E94E95A53
:104080000C94542E0E94FD5A0C94542E8EE40E94DF
:10409000243A882311F40C94542E0E947A396093A8
:1040A000F9147093FA148093FB149093FC140C94FD
:1040B000542E83E50E94DD39882359F083E50E9460
:1040C000243A882319F00E948A3901C080E0809345
:1040D0006A1AEAE0FCE284918F010F5F1F4F882388
:1040E00021F00E944A3AF801F6CFE9EBF3E084911F
:1040F0008F010F5F1F4F882321F00E944A3AF80179
:10410000F6CF80916A1A8823A1F14BEAC42E43E0CE
:10411000D42EE12CF12C20E080916A1A90E00E2C34
:1041200002C0959587950A94E2F780FF17C0BB24DB
:10413000B394B20E222319F08CE20E944A3AF6019F
:1041400025913491F901849189010F5F1F4F8823D4
:1041500021F00E944A3A9801F5CF2B2DFFEFEF1A7C
:10416000FF0A32E0C30ED11C45E0E416F104A1F6CB
:104170000CC0E5EBF3E084918F010F5F1F4F8823A4
:1041800021F00E944A3AF801F6CF8AE00E944A3AAA
:104190000C94542E10923F020C94542E80EC93E019
:1041A0000E94F4DF0E940A790C94542E83E50E9449
:1041B000243A882369F00E948A398D3320F4809351
:1041C00046020C94542E8CE3809346020C94542E99
:1041D000EAE0FCE284918F010F5F1F4F882321F0FA
:1041E0000E944A3AF801F6CF4091460250E060E062
:1041F00070E089EC93E00E9491628AE00E944A3A62
:104200000C94542E89E690E00E94E83D811111C083
:10421000E0EDF3E084918F010F5F1F4F882321F0C1
:104220000E944A3AF801F6CF0E94C5BE8AE00E9479
:104230004A3A1092A21A0C94B03383E50E94243AB1
:10424000882311F40C94542E0E948A39182F8D3330
:1042500008F01CE31093B11A0E9493566B017C0185
:10426000212F30E0A8EEB3E00F942C0BC60ED71E22
:10427000E81EF91EC092AD1AD092AE1AE092AF1AA3
:10428000F092B01A0C94542E8DE690E00E94E83D16
:1042900081110C94542E80916A1A83FF02C00C94F1
:1042A000542E83E50E94243A8B8B81110C945E2E50
:1042B00082E50E94243A81110C945E2E0C94542EB7
:1042C00080916A1A83FF02C00C94542E83E50E94E9
:1042D000243A882311F40C94542E0E94AA390F9486
:1042E0001B0C6837710514F068E770E07093581A7A
:1042F0006093571A0E94CE9E0C94542E80916A1A95
:1043000083FF02C00C94542E83E50E94243A8AA3B2
:1043100081110C94D62F82E50E94243A81110C94CD
:10432000D62F0C94542E0E94D3950C94542E80E5D5
:104330000E94243A811106C010925A1A1092591AFA
:104340000C94542E0E947A39672B11F00C94542E41
:10435000F3CF0E94649F0E94949510925A1A109273
:10436000591A68EE73E080E090E00E949FB060E030
:1043700083E194E00E948DB10C94542E20938A0323
:104380000C94542E83E50E94243A8823A1F00E94C5
:10439000AA3920E030E04AE754E40F9497080F94DC
:1043A000200C6093470270934802809349029093D7
:1043B0004A020C94542E88E50E94DD3981110C9438
:1043C000553189E50E94DD3981110C9455318AE51A
:1043D0000E94DD3981110C94553185E40E94DD394C
:1043E00081110C9455310E9494950C94542E83E5C0
:1043F0000E94DD39882311F40C94542E0E94AA39AE
:1044000020E030E04AE754E40F9497080F94200C22
:104410006093A71A7093A81A8093A91A9093AA1A66
:104420000C94542E1AE5C12E12E0D12E06EAE02E8D
:1044300002E1F02E10E0D6018D916D010E94DD3970
:10444000882309F46DC0133009F063C00E94AA39B3
:104450004B015C0120E030E040EA51E40F94320867
:1044600087FF4EC0A50194016091B2127091B31202
:104470008091B4129091B5120F94B30B2B013C01B3
:104480009B01AC0160916A1070916B1080916C106F
:1044900090916D100F94970860936A1070936B1051
:1044A00080936C1090936D10A30192016091DB0AD0
:1044B0007091DC0A8091DD0A9091DE0A0F949708D2
:1044C0006093DB0A7093DC0A8093DD0A9093DE0A26
:1044D0006091070B7091080B8091090B90910A0B6A
:1044E0000F943608A30192010F9497080F94200CA3
:1044F0006093070B7093080B8093090B90930A0B42
:104500008092B2129092B312A092B412B092B512ED
:1045100007C00E94AA39F701608371838283938365
:104520001F5FF4E0EF0EF11C143009F084CF0E94FD
:10453000AC640C94542EE7E0F5E084918F010F5F9A
:104540001F4F882321F00E944A3AF801F6CF60E01D
:1045500087EF94E00E94797A61E080EF94E00E9416
:10456000797A61E085EE94E00E94797A61E085EDE8
:1045700094E00E94797A60E08CEC94E00E94797A71
:1045800061E082EC94E00E94797A60E088EB94E04C
:104590000E94797A60E080EB94E00E94797A61E091
:1045A00082EA94E00E94797A60E084E994E00E94D3
:1045B000797A60E085E894E00E94797A60E087E7A4
:1045C00094E00E94797A60E081E694E00E94797A32
:1045D00060E080E594E00E94797A60E08BE394E00B
:1045E0000E94797A61E088E294E00E94797A0C94E2
:1045F000542E8091111B9091121BDC012C912111E2
:1046000004C00E94ABE50C94542E60E00E94C7B138
:104610000C94542E0091111B1091121B83E0D12C8D
:1046200040E08150E1F0F8019081292F2B7F213467
:10463000C1F721812133A9F7913421F0953421F478
:1046400041E002C0DD24D39498012E5F3F4F8901E1
:104650002F5F3F4FD8019C919032C9F3E2CF4423A2
:1046600069F0EAE0FCE284917F01BFEFEB1AFB0AFC
:10467000882321F00E944A3AF701F5CFDD2069F046
:10468000E2EDF5E084917F012FEFE21AF20A882330
:1046900021F00E944A3AF701F5CFD8018D918D01A2
:1046A000882309F472CD0E944A3AF7CFE9EFF5E08A
:1046B00084918F010F5F1F4F882321F00E944A3A97
:1046C000F801F6CFE1EFF5E084918F010F5F1F4F06
:1046D000882321F00E944A3AF801F6CF659903C079
:1046E0000EE213E002C003E313E0F80181918F01B1
:1046F000882319F00E944A3AF8CF8AE00E944A3A89
:10470000E9EEF5E084918F010F5F1F4F882321F0C0
:104710000E944A3AF801F6CF8091030181FD03C05F
:104720000EE213E002C003E313E0D8018D918D0186
:10473000882319F00E944A3AF8CF8AE00E944A3A48
:10474000E1EEF5E084918F010F5F1F4F882321F088
:104750000E944A3AF801F6CF4B9903C00EE213E0EB
:1047600002C003E313E0F80181918F01882319F05F
:104770000E944A3AF8CF8AE00E944A3AE6EDF5E014
:1047800084918F010F5F1F4F882321F00E944A3AC6
:10479000F801F6CF649B03C00EE213E002C003E30E
:1047A00013E0D8018D918D01882309F4EECC0E948D
:1047B0004A3AF7CF10922104109220040C94542E00
:1047C00083E50E94243A882319F00E947A3902C0B6
:1047D00060E070E08B01112702301105D4F0E4E1B4
:1047E000FDE284918F010F5F1F4F882321F00E940B
:1047F0004A3AF801F6CFE3E1F6E084918F010F5FCA
:104800001F4F882311F40C94542E0E944A3AF80149
:10481000F4CF88E40E94243A8823A9F00E947A39D0
:104820006A3A71053CF06E31B1E07B072CF06DE126
:1048300071E002C06AEA70E0F801EE0FFF1FE15478
:10484000F54F7183608386E40E94243A8823A9F09F
:104850000E947A39F801EE0FFF1FED53F54F718377
:1048600060836F3F710519F014F06FEF70E077FF10
:1048700002C060E070E07183608382E40E94243AA9
:10488000882311F40C94542E0E947A3965307105F6
:1048900034F06A3671052CF069E670E002C065E01C
:1048A00070E0000F111FF801E554F54F718360832C
:1048B0000C94542E88EC90E00E94E83D81110C94F9
:1048C000542E84E40E94DD398823C1F10E94AA3964
:1048D00011E020E030E0A9010F943208811101C0FD
:1048E00010E010937A10112349F10E94AA39E09147
:1048F0008A1124E0E29FF0011124EA58FF4E608300
:1049000071838283938320E030E0A9016091761067
:104910007091771080917810909179100F943208EF
:1049200081110CC080E090E0A0EEBFE38093761090
:1049300090937710A0937810B09379100E945FD273
:104940000C94542ED8018D918D010E94DD3988235D
:1049500049F00E94AA390F94200CF70160837183FB
:1049600082839383F4E0EF0EF11CD012EBCF0E9410
:104970006C630C94542E9FECE92E9AE0F92E0AE514
:1049800012E024E0D22ED00ED8018D918D010E942C
:10499000DD39882339F00E94AA39F70160837183D9
:1049A00082839383F4E0EF0EF11CD012EDCF0C94D0
:1049B000542E83E50E94243A8823A1F00E94AA394C
:1049C00060935A1070935B1080935C1090935D100D
:1049D000609352107093531080935410909355101D
:1049E00010E001C011E080E50E94243A882359F0CC
:1049F0000E94AA3960935A1070935B1080935C10E8
:104A000090935D1010E082E50E94243A882359F0CB
:104A10000E94AA39609356107093571080935810D3
:104A20009093591010E084E50E94243A882361F0A5
:104A30000E94AA39609352107093531080935410BF
:104A4000909355100C94542E112311F40C94542E61
:104A500040915A1050915B1060915C1070915D1004
:104A60008BE396E00E94AE62409156105091571031
:104A7000609158107091591088E396E00E94AE62E0
:104A800040915210509153106091541070915510F4
:104A900085E396E00E94AE628AE00E944A3A0C9456
:104AA000542E82E40E94DD39882351F00E946A3935
:104AB0006093E6107093E7108093E8109093E910EC
:104AC00083E50E94DD39882351F00E94AA39609362
:104AD000CB0A7093CC0A8093CD0A9093CE0A84E5DA
:104AE0000E94DD39882351F00E94AA396093C70AD9
:104AF0007093C80A8093C90A9093CA0A88E50E94F5
:104B0000DD39882351F00E94AA3960935E107093BA
:104B10005F10809360109093611089E50E94DD39E9
:104B2000882351F00E94AA39609362107093631039
:104B300080936410909365108AE50E94DD39882384
:104B4000F1F00E94AA396093661070936710809309
:104B50006810909369102DEC3CEC4CEC5DE30F94E5
:104B60003208181664F0EBE4F6E084918F010F5FD1
:104B70001F4F882321F00E944A3AF801F6CF85E4BE
:104B80000E94DD39882311F40C94542E0E94AA3916
:104B900060936A1070936B1080936C1090936D10FB
:104BA0000C94542E0AE5C02E02E0D02E83E0E82EAD
:104BB00089E0F82E10E0D6018D916D010E94DD395B
:104BC000882351F00E94AA39F701608371838283A0
:104BD0009383812F0E94E3381F5FF4E0EF0EF11CF6
:104BE000133049F70C94A51C0E9497C381110C94B3
:104BF000542E18EF812E1FE2912E29E139E03C8BD3
:104C00002B8BAE014F5F5F4F5A0101E510E31A0194
:104C100053E0500F5F8BF4016591759185919491EC
:104C2000AB89BC89CD90DD90ED90FD90BC8BAB8BBA
:104C3000A70196010F943B0B2B013C0120E030E0D3
:104C400040EA51EC0F949F0C87FD10C020E030E04B
:104C500040EA51E4C301B2010F943208181634F04F
:104C6000F10140825182628273820EC0F801849108
:104C70001816B4F7F7FAF094F7F8F094D101CD9242
:104C8000DD92ED92FC921397D101CD90DD90ED90E5
:104C9000FD901D0120E030E040EA51ECC701B60173
:104CA0000F949F0C87FF03C0E4E1FDE20BC020E0FE
:104CB00030E040EA51E4C701B6010F9432081816FB
:104CC00074F5F2CF84918F010F5F1F4F882321F07D
:104CD0000E944A3AF801F6CFEBE9F6E084918F01A1
:104CE0000F5F1F4F882321F00E944A3AF801F6CF48
:104CF00061E08DE896E00E948DB10E941E7488E20A
:104D000090E09E878D8788EC90E09A8B898BBE011E
:104D1000635F7F4FCE0141960E9432C3C5C7B4E0A6
:104D20008B0E911C0F5F1F4FEF89E01374CFB3E020
:104D3000EB2EB9E0FB2E10E0F50181919191A1914C
:104D4000B1915F01F70181939193A193B1937F0199
:104D5000812F0E94E3381F5F133071F70E94BD7AE4
:104D600060E08DE796E00E948DB183E992E09A8B36
:104D7000898B04E610E01E870D87BE016F5E7F4FB2
:104D8000CE010D960E9432C38AEB92E09A8B898BFA
:104D90001E870D87BE016F5E7F4FCE010D960E946C
:104DA00032C382C70E948F797FC78DED90E00E9449
:104DB000E83D811179C783E50E94243A8823D1F127
:104DC00000918A1110E00E947A39000F111FF8013A
:104DD000E95CFD4F7183608380918A1190E07C01D2
:104DE000EE0CFF1CEE0CFF1C87010D5C1D4F880FA5
:104DF000991FFC01E95CFD4F60817181072E000C59
:104E0000880B990B0F9438082AE037ED43E25CE3F6
:104E10000F949708F701E654FD4E208131814281BD
:104E200053810F949708D8016D937D938D939C9334
:104E300013973AC7EAE0FCE284918F010F5F1F4F9E
:104E4000882321F00E944A3AF801F6CF85E40E94B7
:104E50004A3A80918A11805D0E944A3AE0918A1113
:104E6000F0E0EE0FFF1FE95CFD4F6081718189EB7F
:104E700096E00E94CB6285E20E944A3A8AE00E9454
:104E80004A3A12C780E50E94DD39882309F40CC72D
:104E90000E947A396B017C0183E50E94243A8823C1
:104EA00021F00E947A398B0102C00FEF1FEFC80179
:104EB0000196039708F0F8C6D7FCF6C69C2DE1ECE6
:104EC000F6E08DE28E0F2491921711F40C94AE311E
:104ED00031968E13F8CF0C9485318AE50E94243ADE
:104EE00081110C94B13183E50E94243A81110C9414
:104EF000B131DAC683E50E94243A882319F00E9472
:104F00007A3902C064E071E07E876D8780E50E9497
:104F1000243A882339F00E947A396938B3E17B0753
:104F200030F402C068EE73E07A83698304C088E8D5
:104F300093E19A838983BE01635F7F4FCE0101961F
:104F40000E9432C3B1C685E40E94243A811110C088
:104F500080E50E94DD39882391F00E94AA39609390
:104F6000AE0A7093AF0A8093B00A9093B10A07C05B
:104F70000E948A39882361F3E4E1FDE26EC089E48E
:104F80000E94DD39882381F00E94AA392CEA35EC91
:104F900047E25EE30F9497086093B60A7093B70AEE
:104FA0008093B80A9093B90A84E40E94DD3988237B
:104FB00081F00E94AA392CEA35EC47E25EE30F94B7
:104FC000B30B6093B20A7093B30A8093B40A9093C0
:104FD000B50AEAE0FCE284918F010F5F1F4F88233E
:104FE00021F00E944A3AF801F6CF4091AE0A509162
:104FF000AF0A6091B00A7091B10A86EF96E00E9404
:10500000AE622CEA35EC47E25EE36091B60A70913D
:10501000B70A8091B80A9091B90A0F94B30BAB010B
:10502000BC0182EF96E00E94AE622CEA35EC47E2CA
:105030005EE36091B20A7091B30A8091B40A9091D4
:10504000B50A0F949708AB01BC018EEE96E00E9462
:10505000AE628AE00E944A3A27C684918F010F5FB0
:105060001F4F882321F00E944A3AF801F6CFEAEF59
:10507000F6E084918F010F5F1F4F882309F414C657
:105080000E944A3AF801F5CF83E50E94DD39182FD6
:10509000882371F00E94AA390F941B0C709341026F
:1050A0006093400221E0672B09F020E02093671A0B
:1050B00080E50E94DD39882359F02091400230912B
:1050C0004102232B11F00E949B398093671AECC593
:1050D0001111EAC5EAE0FCE284918F010F5F1F4FD6
:1050E000882321F00E944A3AF801F6CF8091671A8E
:1050F000811103C06DE373E002C060E373E081E2FD
:1051000097E00E94E462609140027091410280E168
:1051100097E00E94CB62ECE0F7E084918F010F5F93
:105120001F4F882309F4C0C50E944A3AF801F5CF01
:1051300085E40E94243A882321F00E947A397B0179
:1051400002C0E12CF12C83E40E94243A882321F050
:105150000E947A396FAB02C025E02FAB85E50E9433
:10516000243A882319F00E949B3903C085E50E94E8
:10517000DD3924968FAF2497F7FC07C0812C912C42
:1051800056E1A52E53E4B52E06C0812C912C4CE897
:10519000A42E42E4B42E83E50E94243A882321F011
:1051A0000E94AA394B015C01E114F10411F4109240
:1051B0008A110E9493562B013C01EE2069F0E3EA2C
:1051C000F8E084918F010F5F1F4F882309F46CC5AD
:1051D0000E944A3AF801F5CFEDECF8E084917F01A6
:1051E0003FEFE31AF30A882321F00E944A3AF701BD
:1051F000F5CFC501B4010F941B0C072E000C880BD2
:10520000990B0F9438086B8F7F8F88A399A3B301F4
:10521000A201405E514B6F4F7F4F60964CAF5DAF28
:105220006EAF7FAF60970E94649F8FE78093881175
:1052300081E080933F024BAE5CAE6DAE7EAE2896B1
:105240004CAE5DAE6EAE7FAE28971AAE2C961CAEFD
:105250001DAE1EAE1FAE2C971CA250E458A76CE1E9
:1052600069A776E47AA71BA61CA61DA61EA61BAAE4
:105270001CAA1DAA1EAA1FA618AA19AA1AAAC12CDE
:10528000D12C76018FE790E0A0E0B0E08F8B988F73
:10529000A98FBA8F3FE7832E912CA12CB12C239696
:1052A0001CAE1DAE1EAE1FAE239791E099AF1BA2A0
:1052B0001AA210E0212C312C00E0AFA90A2E000C1C
:1052C000BB0BB8AFAFAB80913F02882309F4BFC0DE
:1052D0000E9493566B8B7C8B8D8B9E8B8091FE10E6
:1052E000882309F498C00E9424A01091621A20908B
:1052F000631A3090641A0091651A212F322D432DC4
:10530000502F6BA57CA58DA59EA50F94320887FF15
:1053100004C01BA72CA63DA60EA7212F322D432D7E
:10532000502F6CA178A589A59AA50F949F0C1816EB
:1053300024F41CA328A639A60AA7B9AD2B8D3F8D4E
:1053400048A159A1612F722D832D902FBB2309F401
:1053500049C00F949F0C18160CF05DC02B893C8936
:105360004D895E89241935094609570964962CAF81
:105370003DAF4EAF5FAF6497DA01C90188589341E2
:10538000A109B109B7FD47C0D501C4014F89588DA6
:10539000698D7A8D841B950BA60BB70BB595A795D8
:1053A000979587958093881164966CAD7DAD8EAD91
:1053B0009FAD649723966CAF7DAF8EAF9FAF239761
:1053C0007B8D7BA78F8D8CA798A19DA7A9A1AEA748
:1053D0002B893C894D895E892BAF3CAF4DAF5EAFC9
:1053E00019AE19C00F94320887FF15C08B899C89AC
:1053F000AD89BE894BAD5CAD6DAD7EAD841B950BAB
:10540000A60BB70BAC01BD014858534161097109A6
:1054100077FD01C0DEC720E030E040EA51E46B8D4B
:105420007F8D88A199A10F943C0B9B01AC01612F4A
:10543000722D832D902F0F949F0C18167CF4EFE2A1
:10544000F8E084918F010F5F1F4F811103C00E940C
:10545000649F2AC40E944A3AF801F3CF8B899C8941
:10546000AD89BE8928962CAD3DAD4EAD5FAD289778
:10547000821B930BA40BB50BB7FD8AC00E94C5BE5F
:105480008AE00E944A3A4B895C896D897E89405343
:10549000584F6F4F7F4F28964CAF5DAF6EAF7FAFC9
:1054A00028975AAD511159C02C962CAD3DAD4EAD3B
:1054B0005FAD2C97612F722D832D902F0F949F0C31
:1054C0001816B4F520E030E040E050E4612F722D72
:1054D000832D902F0F943C0B2C966CAF7DAF8EAF2D
:1054E0009FAF2C976B897C898D899E89605E714BFB
:1054F0008F4F9F4F60966CAF7DAF8EAF9FAF609721
:1055000020E030E040EC50E46B8D7F8D88A199A1C4
:105510000F943B0B9B01AC0171E07AAF612F722DB0
:10552000832D902F0F949F0C181694F11AAE30C053
:105530008B899C89AD89BE8960962CAD3DAD4EAD01
:105540005FAD6097821B930BA40BB50BB7FD20C01A
:105550004EE058E060E278E018C020E030E040EA39
:1055600051E46B8D7F8D88A199A10F943B0B9B011A
:10557000AC01612F722D832D902F0F94320887FF7D
:1055800007C04BEE57E06EEF77E080E00E9444A04A
:105590008B899C89AD89BE89880F991FAA1FBB1F63
:1055A0004BAD5CAD6DAD7EAD841B950BA60BB70B03
:1055B00084199509A609B70981389F44A241B1050C
:1055C00068F0EDECF7E084918F010F5F1F4F8823A7
:1055D00009F43DCF0E944A3AF801F5CF6AA17BA1B8
:1055E0008FA998AD861797070CF05EC0E0E7F7E04B
:1055F00084918F010F5F1F4F882321F00E944A3A48
:10560000F801F6CFB701A6018CE597E00E94AE62E3
:105610008AE00E944A3A4FA558A969A97AA988E464
:1056200097E00E94AE628AE00E944A3A4BA95CA9C8
:105630006DA97EA984E397E00E94AE628AE00E9491
:105640004A3A24969FAD2497992309F42DC3C0921A
:10565000AE0AD092AF0AE092B00AF092B10A2CEAF8
:1056600035EC47E25EE36FA578A989A99AA90F9462
:1056700097086093B60A7093B70A8093B80A90931C
:10568000B90A2CEA35EC47E25EE36BA97CA98DA947
:105690009EA90F94B30B6093B20A7093B30A8093E0
:1056A000B40A9093B50A00C30E94EEB10CCEE4E1B7
:1056B000FDE284918F010F5F1F4F882321F00E942C
:1056C0004A3AF801F6CFE1EEF8E084918F010F5FDE
:1056D0001F4F882309F4E8C20E944A3AF801F5CF27
:1056E00083E50E94DD39882349F00E949B39082F09
:1056F000811106C080E00E94169B02C0009118092B
:105700008091190990911A09A0911B09B0911C0967
:1057100089839A83AB83BC8380911D0990911E0974
:10572000A0911F09B09120098D839E83AF83B88714
:105730008091210990912209A0912309B091240917
:1057400089879A87AB87BC870E94E69A882371F184
:1057500083E40E94DD39811171C728C093014F8D08
:1057600058A1682D7D2D8F899B8D0F943C0B20E0D7
:1057700030E040E05FE30F949708A20191010F949D
:105780003C0B4B015C012DEB37E346E855EB0F94E6
:105790009F0C87FDA2C72DEB37E346E855E3C50113
:1057A000B4010F94320818160CF497C786E50E94CE
:1057B000DD39882399F00E94E69A882379F0EFE298
:1057C000F9E084917F012FEFE21AF20A882321F099
:1057D0000E944A3AF701F5CF0E946BFF8AE50E94CA
:1057E000DD39882329F00E94AA3940E00E94309BCD
:1057F000802F0E94169B011103C0EAE0FCE21CC04E
:10580000809118098111F9CFE4E1FDE284918F01C3
:105810000F5F1F4F882321F00E944A3AF801F6CF0C
:10582000E0E1F9E084918F010F5F1F4F882329F396
:105830000E944A3AF801F6CF84918F010F5F1F4F03
:10584000882321F00E944A3AF801F6CF8091180986
:10585000811103C06AE273E002C066E273E082E095
:1058600099E00E94E4628AE00E944A3AEAE0FCE29F
:1058700084918F010F5F1F4F882321F00E944A3AC5
:10588000F801F6CFE5EFF8E084918F010F5F1F4F2D
:10589000882321F00E944A3AF801F6CFC0901409FB
:1058A000D0901509E0901609F090170920E030E03B
:1058B000A901C701B6010F949F0C18164CF442E0E1
:1058C000C701B6010E943E3E8AE00E944A3A0CC0DF
:1058D000E0EFF8E084918F010F5F1F4F882321F0E4
:1058E0000E944A3AF801F6CF4CE050E069E179E0D5
:1058F000CE0101960F94960D892B09F4D5C10E9413
:10590000BD7AD2C188E50E94DD39B82E89E40E94B3
:10591000DD39A82E882319F00E947A391AC0BB20DD
:10592000D1F00E94AA3920E030E040E251E40F9427
:105930003B0B20E030E04CE852E40F943C0B21EAB2
:105940003EE04AEE5BE30F9497080F941B0C633024
:1059500010F4F62E02C0FF24FA9489E50E94DD3986
:10596000E82E8AE40E94DD39182F882319F00E945E
:105970007A391AC0EE20D1F00E94AA3920E030E036
:1059800040E251E40F943B0B20E030E04CE852E45D
:105990000F943C0B21EA3EE04AEE5BE30F9497083C
:1059A0000F941B0C633010F4062F01C00FEF8AE533
:1059B0000E94DD39C82E811105C081E50E94DD39C4
:1059C000D82E01C0D12CA11001C010E0212F30E051
:1059D000B11002C090E001C09E2D290F311D213071
:1059E000310519F0E4E1FDE205C0C1101AC0D11083
:1059F00018C0F8CF84918F010F5F1F4F882321F0CB
:105A00000E944A3AF801F6CFE4E6F9E084918F016A
:105A10000F5F1F4F882309F447C10E944A3AF801DB
:105A2000F5CFF7FE03C0E4E1FDE206C007FF17C0B3
:105A3000FACF0E944A3AF80184918F010F5F1F4FFD
:105A40008111F7CFE5E4F9E084918F010F5F1F4FDB
:105A5000882309F429C10E944A3AF801F5CF0E942F
:105A6000AA39A02F000FBB0B0F2DFF0C110BDD204F
:105A700091F0F801EE0FFF1FE00FF11FEA0FFB1F7F
:105A8000EE0FFF1FEE0FFF1FE458F54E208131810E
:105A90004281538103C020E030E0A901F801EE0FFC
:105AA000FF1F0E0F1F1F0A0F1B1F000F111F000FDC
:105AB000111F0458154E0F943C0BD8016D937D9324
:105AC0008D939C931397F0C00E942AD9EDC00E9439
:105AD000F5D7EAC00E947374E7C08BE592E00E949C
