:100000000C947B1A0C94DD5F0C94B25F0C94875FA8
:100010000C945C5F0C94315F0C94065F0C94DB5E77
:100020000C94B05E0C9407EF0C94E0EE0C94B9EED7
:100030000C94AC1A0C94815C0C94AC1A0C94AC1A11
:100040000C94AC1A0C948A9C0C94AC1A0C94AC1AB8
:100050000C94AC1A0C94AC1A0C9432B40C94665EEA
:100060000C94AC1A0C94883E0C94AC1A0C94AC1AF8
:100070000C94AC1A0C94AC1A0C94AC1A0C94AC1AE8
:100080000C9459A50C94AC1A0C94AC1A0C94AC1AA0
:100090000C94AC1A0C94AC1A0C94AC1A0C94AC1AC8
:1000A0000C94AC1A0C94AC1A0C942BA50C94AC1AAE
:1000B0000C94AC1A0C94AC1A0C94AC1A0C94FDA4CD
:1000C0000C94AC1A0C94AC1A0C94AC1A0C94AC1A98
:1000D0000C94AC1A0C94AC1A0C94AC1A0C94AC1A88
:1000E0000C94AC1A4B5B4E5B3D5B415B475B855BA5
:1000F000525B565B5C5B605B645B6A5B6E5B725B16
:10010000855B785B7C5B805B825D875D8C5D965DEB
:10011000A05D195EAA5DB25DBA5DC45DCE5DD85DBD
:10012000E75DF15D195EFB5D055E0F5E4CD132D17E
:1001300035D138D13BD147D13ED158D141D144D12D
:100140000D9479010D9474010D9444030D944803AA
:100150000D9453010D9440030D9457010D946F01BC
:100160000D948C100D944B010D944F010D94640F60
:100170000D94B4016E616E00696E66004E414E4989
:100180004E495459494E46CDCCCC3D0AD7233C1755
:10019000B7D13877CC2B329595E6241FB14F0A00A2
:1001A0000020410000C84200401C4620BCBE4CCA92
:1001B0001B0E5AAEC59D7400407A10F35A00A0720F
:1001C0004E18090010A5D4E80000E8764817000092
:1001D000E40B54020000CA9A3B000000E1F5050060
:1001E0000080969800000040420F000000A08601A9
:1001F000000000102700000000E803000000006479
:1002000000000000000A00000000000100000000E3
:10021000002C76D888DC674F0823DFC1DFAE59E1B8
:10022000B1B796E5E3E453C63AE651997696E8E627
:10023000C28426EB898C9B62ED407C6FFCEFBC9CFA
:100240009F40F2BAA56FA5F490055A2AF75C936B0C
:100250006CF9676DC11BFCE0E40D47FEF520E6B5C7
:1002600000D0ED902E0300943577050080841E08A1
:100270000000204E0A000000C80C333333330F98BF
:100280006E12831141EF8D2114893BE65516CFFE86
:10029000E6DB18D1844B381BF77C1D901DA4BBE412
:1002A00024203284725E228100C9F124ECA1E53D54
:1002B00027536C6565702E2E2E0050726F62696E2A
:1002C00067206661696C65640A0050726F62696ECE
:1002D00067206661696C656400205A3A20002059E5
:1002E0003A200042656420583A2000205A3A200003
:1002F00020593A200042656420583A20004D657329
:100300006820706F696E742063616E6E6F74206216
:1003100065207265736F6C7665640A004E6F206DA0
:100320006F76652E00456E642066696C65206C6989
:1003300073740A00426567696E2066696C65206C9B
:100340006973740A00286E6F2066696C6529005312
:1003500044207072696E74696E67206279746520DA
:10036000004E6F74205344207072696E74696E671A
:100370000A0043757272656E742066696C653A2076
:10038000004B494C4C45442E20004D313133205315
:10039000006F6B0020573A0042656420636F6F6CFA
:1003A000696E672E2E2E004265642068656174694F
:1003B0006E672E2E2E00544845524D414C5F5052D0
:1003C0004F54454354494F4E004155544F524550A8
:1003D0004F52545F53445F53544154555300454D5D
:1003E000455247454E43595F504152534552004391
:1003F0004153455F4C494748545F4252494748542E
:100400004E45535300544F47474C455F4C4947486E
:10041000545300534F4654574152455F504F574530
:1004200052004255494C445F50455243454E54009A
:100430004C4556454C494E475F44415441005A5F34
:1004400050524F4245004155544F4C4556454C0083
:100450005052494E545F4A4F420050524F47524506
:100460005353004155544F5245504F52545F5445D9
:100470004D5000564F4C554D45545249430045454B
:1004800050524F4D0053455249414C5F584F4E5FBB
:10049000584F4646004649524D574152455F4E41DE
:1004A0004D453A4D61726C696E20312E312E3920E6
:1004B000284769746875622920534F555243455F38
:1004C000434F44455F55524C3A68747470733A2FE9
:1004D0002F6769746875622E636F6D2F4D61726C42
:1004E000696E4669726D776172652F4D61726C69D4
:1004F0006E2050524F544F434F4C5F564552534914
:100500004F4E3A312E30204D414348494E455F54BD
:100510005950453A426F6E64746563682043522DAA
:100520003130732045585452554445525F434F551E
:100530004E543A3120555549443A636564653261F9
:1005400032662D343161322D343734382D396231F1
:10055000322D6335356336326633363766660A00C8
:100560002F2F200066696C616D656E743A20007AE9
:100570005F6D696E3A2000795F6D696E3A20007890
:100580005F6D696E3A20005265706F7274696E67B4
:1005900020656E6473746F70207374617475730A70
:1005A000004D31343520533C696E6465783E206FD0
:1005B0007574206F662072616E67652028302D315A
:1005C000290A00205400205200416363656C657263
:1005D0006174696F6E3A2050005741524E494E4740
:1005E00021204C6F77205A204A65726B206D61790B
:1005F000206C65616420746F20756E77616E746520
:1006000064207061757365732E0A004F66667365AA
:100610007473206170706C696564004572723A2071
:10062000546F6F206661722100546F6F2066617293
:100630002066726F6D207265666572656E636520F7
:10064000706F696E740A00205A002059005800200B
:10065000204D61783A2000205A002059005800208F
:10066000204D696E3A20004F6E20004F66660053A1
:100670006F667420656E6473746F70733A20002027
:10068000466C6F773A2000000136372603FFFFFFE4
:10069000353C3D380EFFFFFF312E303E12FFFFFF8D
:1006A000FF28FF0C0809FFFFFF1A1C18FFFF2A088C
:1006B000440AFF43206F7574206F662072616E6775
:1006C000650A00536572766F20003A20002053655A
:1006D00072766F200020643A0020693A0020703A58
:1006E00000496E76616C6964206578747275646522
:1006F000720A0043290A0061626C656420286D69F2
:100700006E2074656D702000436F6C642065787492
:100710007275646573206172652000236465666983
:100720006E652044454641554C545F4B6420002380
:10073000646566696E652044454641554C545F4B7F
:1007400069200023646566696E652044454641550D
:100750004C545F4B702000504944204175746F74B5
:10076000756E652066696E697368656421205075D1
:100770007420746865206C617374204B702C204B5E
:100780006920616E64204B6420636F6E7374616EC8
:1007900074732066726F6D2062656C6F7720696E6E
:1007A000746F20436F6E66696775726174696F6EEE
:1007B0002E680A00504944204175746F74756E6547
:1007C000206661696C6564212074696D656F75745C
:1007D0000A00453120544845524D414C2052554E57
:1007E0004157415900546865726D616C2052756EB5
:1007F000617761790045312048656174696E6720D1
:100800006661696C65640048656174696E6720663D
:1008100061696C656400504944204175746F74755A
:100820006E65206661696C6564212054656D706534
:1008300072617475726520746F6F20686967680AE9
:1008400000204B643A2000204B693A2000204B7076
:100850003A20000A20436C61737369632050494455
:10086000200A002054753A2000204B753A200020C1
:100870006D61783A2000206D696E3A200020643A5C
:10088000200020626961733A20005049442041757C
:10089000746F74756E65206661696C6564212042B1
:1008A0006164206578747275646572206E756D621E
:1008B00065720A00504944204175746F74756E6505
:1008C0002073746172740A004E6F20636173652037
:1008D0006C696768740A004F66660A004661646561
:1008E000204865696768742000426564204C65761D
:1008F000656C696E6720004661696C656420746F81
:1009000020656E61626C6520426564204C65766589
:100910006C696E670A004D65736820426564204CFF
:100920006576656C20646174613A0A004D65736890
:1009300020706F696E742063616E6E6F74206265E3
:10094000207265736F6C7665640A004D3432312015
:10095000696E636F727265637420706172616D6538
:100960007465722075736167650A00416374697606
:10097000652045787472756465723A2000496E7618
:10098000616C69642065787472756465720A004BE5
:10099000494C4C45442E2000202D20496E76616C38
:1009A0006964206578747275646572206E756D6215
:1009B000657220210A001FFFFFFFFFFFFF6000009C
:1009C000000001FF400000000000FF800000000068
:1009D000007F83CF00000C303F87FF80000C301F6A
:1009E000867980000C000F8C30C7838C30E78C3008
:1009F000CFC7CC31F38C30DCECEC33B98C30D86C15
:100A00006C33198C30D06C0C33198C30D86C0C339F
:100A1000198C30DC6C0E3B198C30CF7C079F198C05
:100A200030C77C038F194000000000000260000006
:100A3000000000061FFFFFFFFFFFF8494E56414C24
:100A400049442044415441004D32342053256C64C4
:100A50002054256C64004D32332025730047393211
:100A60002E30205A257320452573004D3432302016
:100A7000532569205A2573004732382052302058B8
:100A80002059004731205A32004739322E30205A3F
:100A900030004D343230205330205A300020205066
:100AA0006C616E6E657242756666657242797465D8
:100AB000733A20002046726565204D656D6F72792E
:100AC0003A2000436F6D70696C65643A204A756E18
:100AD00020313020323031390A00207C20417574B9
:100AE000686F723A20286E6F6E652C2064656661AF
:100AF000756C7420636F6E666967290A0032303145
:100B0000382D30372D333100204C617374205570EF
:100B100064617465643A2000312E312E390A004D2B
:100B200061726C696E0020536F6674776172652024
:100B300052657365740A00205761746368646F6757
:100B40002052657365740A002042726F776E206FC1
:100B500075742052657365740A0020457874657257
:100B60006E616C2052657365740A00506F77657210
:100B700055700A0073746172740A006175746F2590
:100B8000692E67006572726F722077726974696E80
:100B90006720746F2066696C650A00456E64737423
:100BA0006F70732025632025632025632025630053
:100BB000205A3A0020593A0020583A00656E647372
:100BC000746F7073206869743A2000446F6E6520FA
:100BD000736176696E672066696C652E0A004D3216
:100BE0003900656E7175657565696E672022004D07
:100BF00033310053442072656164206572726F72F4
:100C00000A00446F6E65207072696E74696E6720A9
:100C100066696C650A004E6F20436865636B737587
:100C20006D2077697468206C696E65206E756D62E1
:100C300065722C204C617374204C696E653A2000FB
:100C40004B494C4C45442E200053544F5050454482
:100C50002E20005072696E7465722073746F70700C
:100C600065642064756520746F206572726F72739D
:100C70002E2046697820746865206572726F722034
:100C8000616E6420757365204D39393920746F2089
:100C9000726573746172742E202854656D7065726C
:100CA00061747572652069732072657365742E2096
:100CB000536574206974206166746572207265736F
:100CC00074617274696E67290A004E6F204368650B
:100CD000636B73756D2077697468206C696E65202D
:100CE0006E756D6265722C204C617374204C696E58
:100CF000653A2000636865636B73756D206D697379
:100D00006D617463682C204C617374204C696E654E
:100D10003A20004C696E65204E756D6265722069DF
:100D200073206E6F74204C617374204C696E652063
:100D30004E756D6265722B312C204C617374204CA2
:100D4000696E653A20004D3131300020496E766180
:100D50006C69642065787472756465722000207413
:100D60006F6F206C6F6E6720657874727573696F32
:100D70006E2070726576656E7465640A0020636F1C
:100D80006C6420657874727573696F6E207072651B
:100D900076656E7465640A004572726F72207772B0
:100DA0006974696E6720746F20454550524F4D211C
:100DB0000A00454550524F4D206461746173697A51
:100DC00065206572726F722E0A00290A002062790E
:100DD0007465733B20637263200053657474696E9D
:100DE00067732053746F726564202800000021002F
:100DF000240027002A002D003000330001010000EC
:100E0000040107010A0100002200250028002B0030
:100E10002E003100340002010000050108010B0121
:100E2000000020002300260029002C002F003200A3
:100E3000000100000301060109010505050507057C
:100E400008080808020202020A0A08080404040446
:100E50000101010101010101030303030303030372
:100E6000040707070C0C0C0C0C0C0C0C0202020201
:100E700006060606060606060B0B0B0B0B0B0B0BEA
:100E8000010210202008081020401020408002019C
:100E90000201080402010102040810204080804081
:100EA0002010080402018004020180402010080480
:100EB000020108040201010204081020408001021E
:100EC00004081020408000000A0B02090C0D0E08D7
:100ED0000703040100000000000000000000000003
:100EE0000000000000000000000000000000000002
:100EF00000001211100000000000000000000000BF
:100F000000000000000000000000000002457874AE
:100F10007275646572004D6F7665205A004D6F766C
:100F2000652059004D6F76652058005072657061DC
:100F3000726500496E697469616C697A652045451E
:100F400050524F4D00436F6E74726F6C0052657358
:100F5000746F7265206661696C73616665004C6FC1
:100F600061642073657474696E677300496E697497
:100F700069616C697A6520454550524F4D00537444
:100F80006F72652073657474696E677300424C54A8
:100F90006F7563680046696C616D656E74004D6FB6
:100FA00074696F6E0054656D7065726174757265F9
:100FB000004D61696E005072656865617420414240
:100FC0005320636F6E6600507265686561742050CF
:100FD0004C4120636F6E66005049442D44005049D7
:100FE000442D44005049442D49005049442D4900A6
:100FF0005049442D50005049442D500020082046AF
:101000006163740020082046616374002008204D4D
:101010006178002008204D6178002008204D61781B
:10102000002008204D696E002008204D696E0020C8
:1010300008204D696E004F6666004F6E20004175B6
:10104000746F74656D700046616E207370656564C1
:101050000046616E207370656564004265640042FD
:101060006564004E6F7A7A6C65004E6F7A7A6C65B3
:1010700000436F6E74726F6C0053746F72652073EF
:10108000657474696E67730042656400426564004C
:101090004E6F7A7A6C65004E6F7A7A6C65004661A5
:1010A0006E2073706565640046616E2073706565BF
:1010B000640054656D706572617475726500434FAC
:1010C0004D4D554E49434154494F4E00445259529B
:1010D000554E004552524F525300494E464F00451F
:1010E00043484F00206E6F7420656E7465726564AE
:1010F0002E0A00206F6620004D424C2047323920D6
:10110000706F696E74200059206F7574206F6620AF
:1011100072616E67652028312D33292E0A00582010
:101120006F7574206F662072616E67652028312D9F
:1011300033292E0A004D6573682070726F62696EE4
:101140006720646F6E652E0A005374617274206D9F
:101150006573682070726F62696E67207769746862
:101160002022473239205331222066697273742E4F
:101170000A004732380A473239205332005374612B
:1011800074653A20004D65736820626564206C6563
:1011900076656C696E6720686173206E6F2064618C
:1011A00074612E0A0053206F7574206F662072617F
:1011B0006E67652028302D35292E0A00436C69633F
:1011C0006B20746F20726573756D652E2E2E002551
:1011D00069730025696D20256973002569682025DC
:1011E000696D2025697300256964202569682025BB
:1011F000696D20256973002569792025696420259A
:1012000069682025696D20256973005072696E74C4
:101210002074696D653A200050726F74656374655F
:10122000642050696E0A0020573A004520436F6FD2
:101230006C696E672E2E2E00452048656174696EBC
:10124000672E2E2E00DF10DA10D310CC10BE106FD8
:1012500066660044454255473A00426F6E647465C5
:1012600063682043522D313073204F66662E002074
:101270005A3A0020593A0020436F756E7420583A4C
:101280000020453A00205A3A0020593A00583A00C6
:101290003A004361703A004573746570732F6D6D49
:1012A000004573746570732F6D6D005A73746570AB
:1012B000732F6D6D005A73746570732F6D6D0059C7
:1012C00073746570732F6D6D005973746570732F2F
:1012D0006D6D005873746570732F6D6D0058737465
:1012E0006570732F6D6D004D6F74696F6E00537470
:1012F0006570732F6D6D004A65726B0041636365A5
:101300006C65726174696F6E0056656C6F636974A9
:10131000790050726F6265205A204F66667365745B
:101320000050726F6265205A204F666673657400C4
:10133000436F6E74726F6C004C6F6164206D6D0052
:101340004C6F6164206D6D004C6F6164206D6D00A9
:10135000556E6C6F6164206D6D00556E6C6F6164CD
:10136000206D6D00556E6C6F6164206D6D00466977
:101370006C2E204469612E0046696C2E2044696100
:101380002E004F6666004F6E20004520696E206D6E
:101390006D3300436F6E74726F6C0043616E6E6FDD
:1013A0007420656E746572207375626469723A2088
:1013B00000022E2E000152656672657368004D6151
:1013C000696E004D36303020423020542564004D87
:1013D00037303120542564004D373032203B2564AE
:1013E000004D37303220542564004368616E6765D4
:1013F0002066696C616D656E740050726568656128
:101400007420414253005072656865617420504CED
:1014100041004368616E67652066696C616D656E49
:1014200074005052494E5420504155534544005584
:101430004E4C4F41442046494C414D454E54004C82
:101440004F41442046494C414D454E540050757221
:101450006765206D6F726500436F6E74696E7565A8
:1014600000524553554D45204F5054494F4E533A25
:101470000020204E6F7A7A6C653A20006368616EB6
:101480006765006F66207468652066696C616D65CC
:101490006E74005761697420666F72207374617294
:1014A000740020204E6F7A7A6C653A200020006626
:1014B000696C616D656E7420756E6C6F6164005748
:1014C00061697420666F720020204E6F7A7A6C65B5
:1014D0003A20002000506C65617365207761697463
:1014E0002E2E2E0048656174696E67206E6F7A7AC1
:1014F0006C650020204E6F7A7A6C653A20002000DF
:1015000068656174206E6F7A7A6C652E0050726522
:10151000737320627574746F6E20746F0020204E98
:101520006F7A7A6C653A2000746F20636F6E74690D
:101530006E75652E2E2E00616E6420707265737359
:1015400020627574746F6E00496E736572742066E4
:10155000696C616D656E740020204E6F7A7A6C65DF
:101560003A2000200066696C616D656E74206C6FB6
:101570006164005761697420666F720020204E6FAD
:101580007A7A6C653A2000200066696C616D656E40
:1015900074207075726765005761697420666F7298
:1015A00000746F20726573756D65005761697420F2
:1015B000666F72207072696E74004261636B004ED8
:1015C00065787420636F726E6572004C6576656C29
:1015D000696E6720446F6E6521004D6F7665205AF5
:1015E00000473239205332004E65787420506F69BD
:1015F0006E74002569202F2025750047323920534D
:10160000310047323920533200436C69636B2074D8
:101610006F20426567696E00486F6D696E6720587C
:10162000595A004732380053746F726520736574DD
:1016300074696E6773004C6F6164207365747469BC
:101640006E6773004C6576656C20636F726E6572B1
:10165000730050726F6265205A204F66667365741E
:101660000050726F6265205A204F66667365740081
:10167000426564205A00426564205A0046616465F0
:10168000204865696768740046616465204865693B
:10169000676874004F6666004F6E200042656420E4
:1016A0004C6576656C696E67004C6576656C20628A
:1016B00065640050726570617265004D34323800A7
:1016C0004D323830205030205331363000424C54A7
:1016D0006F7563682053656C662D54657374004D97
:1016E000323830205030205331323000507265682B
:1016F00065617420414253005072656865617420D1
:10170000504C4100436F6F6C646F776E00436861AB
:101710006E67652066696C616D656E740043686113
:101720006E67652066696C616D656E74004D36305C
:10173000302042300044697361626C6520737465C7
:101740007070657273004D38340053657420686F93
:101750006D65206F6666736574730052657365749A
:1017600020424C546F75636800426564204C657676
:10177000656C696E67004175746F20686F6D6500F8
:10178000473238004D6F76652061786973004D618E
:10179000696E0000060900FE0701920321207FFF09
:1017A00007FF07FF00000006000001070706020010
:1017B00080808080800080030202060105A0A005D1
:1017C00007070600005050F850F85050050707066C
:1017D00000002078A07028F020050707060000C050
:1017E000C810204098180507070600006090A04028
:1017F000A89068020303060104C04080030707069F
:1018000001002040808080402003070706010080FF
:1018100040202020408005050506000120A870A872
:10182000200505050600012020F8202002030306FC
:1018300002FFC04080050101060003F80202020613
:101840000200C0C005050506000108102040800503
:1018500007070600007088888888887003070706D5
:10186000010040C040404040E0050707060000700E
:101870008808708080F8050707060000F81020101F
:101880000808F005070706000010305090F8101007
:10189000050707060000F880F008088870050707AC
:1018A000060000708080F088887005070706000039
:1018B000F8081020202020050707060000708888FF
:1018C0007088887005070706000070888878080807
:1018D00070020505060200C0C000C0C00206060670
:1018E00002FFC0C000C040800407070600001020AF
:1018F0004080402010050303060002F800F80407AA
:1019000007060100804020102040800507070600E0
:101910000070880810200020050707060000708866
:101920000868A8A870050707060000708888F8886E
:101930008888050707060000F08888F08888F00589
:1019400007070600007088808080887005070706FA
:101950000000F08888888888F0050707060000F8EE
:101960008080F08080F8050707060000F88080F08E
:10197000808080050707060000708880B88888701E
:10198000050707060000888888F888888801070707
:1019900006020080808080808080050707060000A6
:1019A000381010101090600507070600008890A0FE
:1019B000C0A0908805070706000080808080808096
:1019C000F805070706000088D8A8888888880507D2
:1019D000070600008888C8A89888880507070600B9
:1019E0000070888888888870050707060000F088DE
:1019F00088F080808005070706000070888888A826
:101A00009068050707060000F08888F0A090880518
:101A10000707060000788080700808F005070706B1
:101A20000000F8202020202020050707060000885D
:101A30008888888888700507070600008888888855
:101A40008850200507070600008888888888A850E5
:101A5000050707060000888850205088880507077A
:101A6000060000888888502020200507070600000F
:101A7000F80810204080F8030707060100E0808086
:101A8000808080E0050505060001804020100803E5
:101A90000707060100E02020202020E005030306C0
:101AA0000004205088050101060000F80202020629
:101AB0000205804005050506000070087888780555
:101AC00007070600008080B0C88888F00505050675
:101AD000000070808088700507070600000808680D
:101AE000988888780505050600007088F8807005DC
:101AF00007070600003048E0404040400506060663
:101B000000FF70888878087005070706000080804D
:101B1000B0C888888801070706020080008080809E
:101B200080800308080601FF200020202020A0401C
:101B3000040707060000808090A0C0A0900307075C
:101B4000060100C04040404040E005050506000099
:101B5000D0A8A8A8A8050505060000B0C8888888F0
:101B600005050506000070888888700506060600D1
:101B7000FFF08888F080800506060600FF788888D8
:101B8000780808050505060000B0C88080800505B6
:101B90000506000070807008F0040707060000408A
:101BA00040E04040403005050506000088888898E0
:101BB000680505050600008888885020050505068B
:101BC00000008888A8A85005050506000088502058
:101BD00050880506060600FF888888780870050585
:101BE00005060000F8102040F80307070601002052
:101BF000404080404020010707060200808080802E
:101C0000808080030707060100804040204040801C
:101C1000050202060002689000000006000025751B
:101C20003A2530327500253032753A25303275004C
:101C300025756420253032753A2530327500202014
:101C400020202020005A0059002020202000580089
:101C50000920000000000000000000000000003F1C
:101C6000FFF000000000000000000000000038004D
:101C70007000000000000000000000000030FC3098
:101C800000000000000000000000000020FC100028
:101C9000000000000000000000000020781000009C
:101CA00000000000000000000000203010000000D4
:101CB0000000000000000000002C00D03FC0000029
:101CC00000000000002082002E31D07FE0000000E4
:101CD000000000001041002F7BD07FE000000000DA
:101CE0000000001041002F7BD07FE00000000000CA
:101CF00000002082002E31D03FC000000000000014
:101D0000004104002C00D03FC00000000000000093
:101D10008208002030107FE00000000000000082F8
:101D200008002078107FE00000000000000041045F
:101D30000020FC107FE00000000000000020820076
:101D400030FC301F80000000000000000000003860
:101D500000700F0000000000000000FFFFC03FFF08
:101D6000F0060000000000000000FFFFC0000000BF
:101D70000000000000000000000000003FFFF00035
:101D800000000000000000000000003800700000AB
:101D9000000000000000000000003186300000005C
:101DA0000000000000000000002387100000000079
:101DB00000000000000000002787900000000000E5
:101DC000000000000000002F87D00000000000008D
:101DD0000000000000002F03D03FC0000000000002
:101DE00000002082002030107FE000000000000092
:101DF000001041002078107FE0000000000000008B
:101E00001041002078107FE000000000000000205A
:101E100082002030103FC00000000000000041049C
:101E2000002F03D03FC00000000000000082080027
:101E30002F87D07FE000000000000000820800270C
:101E400087907FE00000000000000041040023872D
:101E5000107FE0000000000000002082003186308A
:101E60001F80000000000000000000003800700F1C
:101E70000000000000000000FFFFC03FFFF0060070
:101E800000000000000000FFFFC000000000060985
:101E900000FE000000000001090008FE0000050827
:101EA0000806000040F0C8888898781005080806E1
:101EB0000000C0F88888888888F8050505060001B4
:101EC0002030F830200508080600002070F8202097
:101ED0002020E00509090600FF2070A8A8B888881E
:101EE00070200509090600FFE080C0B0A82830284E
:101EF000280509090600FFF8A88888888888A8F8B6
:101F0000050A0A0600FE205050505088A8A8887084
:101F100003030306000340A04024F4D43050C38ED2
:101F200020C2A24017828B7011127A910D816CD958
:101F30000AA861E108C7586607615143061E4B5D58
:101F400005C145A7041A411104093D9803713931AF
:101F5000034036DB0265339102D4305402802E1DDB
:101F600002632CEE01752AC501B028A0011027815B
:101F7000018F2564012B244B01E0223401AC211F89
:101F8000018D200D01801FFC00841EED00971DDFD8
:101F900000B81CD200E61BC600201BBC00641AB2AD
:101FA00000B219A8000A19A0006A189900D1179167
:101FB0000040178B00B516840031167E00B31579EA
:101FC000003A157300C7146F0058146A00EE1366C8
:101FD000008813630025135E00C7125B006C125764
:101FE0000015125400C111510070114F0021114B06
:101FF00000D61049008D10470046104400021042E0
:1020000000C00F4000800F3E00420F3C00060F3B17
:1020100000CB0E3800930E37005C0E3500270E34CF
:1020200000F30D3200C10D3100900D3000600D2E17
:1020300000320D2D00050D2C00D90C2B00AE0C2903
:1020400000850C29005C0C2700350C27000E0C269F
:1020500000E80B2400C40B2400A00B23007D0B23FD
:10206000005A0B2100390B2100180B2000F80A1F21
:1020700000D90A1E00BB0A1E009D0A1D00800A1D11
:1020800000630A1C00470A1B002C0A1B00110A1AD5
:1020900000F7091A00DD091900C4091900AB091974
:1020A00000920917007B091800630917004C0916F4
:1020B0000036091600200916000A091500F5081552
:1020C00000E0081400CC081400B8081400A4081498
:1020D00000900813007D0812006B081300580812C6
:1020E00000460812003408110023081100120811DC
:1020F0000001081100F0071000E0071000D00710E1
:1021000000C0071000B0070F00A107100091070ED4
:102110000083070F0074070F0065070E0057070EB6
:102120000049070E003B070D002E070E0020070D8B
:102130000013070D0006070D00F9060C00ED060D53
:1021400000E0060C00D4060C00C8060C00BC060C0F
:1021500000B0060C00A4060B0099060C008D060BBF
:102160000082060B0077060B006C060B0061060A66
:102170000057060B004C060A0042060A0038060A01
:10218000002E060A0024060A001A060A0010060994
:102190000007060A00FD050900F4050900EB050922
:1021A00000E2050900D9050900D0050900C70509A5
:1021B00000BE050900B5050800AD050800A5050924
:1021C000009C050800940508008C0508008405089B
:1021D000007C050800740508006C0507006505080B
:1021E000005D050700560508004E05070047050776
:1021F000004005080038050700310507002A0507DB
:1022000000230507001C050600160507000F05073B
:10221000000805060002050700FB040600F5040798
:1022200000EE040600E8040600E2040700DB0406F2
:1022300000D5040600CF040600C9040600C3040646
:1022400000BD040600B7040600B1040500AC040696
:1022500000A6040600A00405009B040600950405E2
:1022600000900406008A0405008504050080040629
:10227000007A04050075040500700405006B040570
:102280000066040500610405005C040500570405B0
:1022900000520405004D04050048040500430405F0
:1022A000003E0404003A040500350405003004042F
:1022B000002C04050027040400230405001E040468
:1022C000001A04040016040500110404000D04049F
:1022D00000090405000404040000040400FC0304D5
:1022E00000F8030400F4030400F0030400EC03040A
:1022F00000E8030400E4030400E0030400DC03043A
:1023000000D8030400D4030400D0030400CC030469
:1023100000C8030300C503030024F404D9201BC430
:102320000C5C0E9804C4095F0265077101F405F99D
:1023300000FB04B30048048700C10369005803553B
:102340000003034500BE023A008402310053022A12
:10235000002902250004022000E4011C00C8011924
:1023600000AF0117009801140084011300710110DF
:10237000006101100051010E0043010D0036010BF8
:10238000002B010B0020010B00150109000C0109B5
:102390000003010800FB000800F3000800EB000741
:1023A00000E4000600DE000600D8000600D20006A9
:1023B00000CC000500C7000500C2000500BD0004F8
:1023C00000B9000400B5000400B1000400AD000431
:1023D00000A9000400A5000300A20003009F000460
:1023E000009B000300980003009500020093000387
:1023F00000900003008D0002008B000300880002A3
:10240000008600020084000300810002007F0002B9
:10241000007D0002007B00020079000200770001CD
:1024200000760002007400020072000100710002D8
:10243000006F0002006D0001006C0002006A0001E4
:1024400000690002006700010066000100650001EC
:1024500000640002006200010061000100600001F0
:10246000005F0002005D0001005C0001005B0001F4
:10247000005A0001005900010058000100570001F6
:1024800000560001005500010054000100530000F7
:1024900000530001005200010051000100500001F2
:1024A000004F0001004E0000004E0001004D0001F1
:1024B000004C0001004B0000004B0001004A0001ED
:1024C00000490001004800000048000100470001E9
:1024D00000460000004600010045000000450001E4
:1024E00000440001004300000043000100420000DE
:1024F00000420001004100000041000100400001D5
:10250000003F0000003F0001003E0000003E0001CF
:10251000003D0000003D0001003C0000003C0000C8
:10252000003C0001003B0000003B0001003A0000BD
:10253000003A0001003900000039000100380000B5
:1025400000380000003800010037000000370001AB
:1025500000360000003600000036000100350000A3
:102560000035000000350001003400000034000098
:10257000003400010033000000330000003300018C
:102580000032000000320000003200010031000083
:102590000031000000310001003000000030000078
:1025A00000300001002F0000002F0000002F00006D
:1025B000002F0001002E0000002E0000002E000160
:1025C000002D0000002D0000002D0000002D000156
:1025D000002C0000002C0000002C0000002C00014A
:1025E000002B0000002B0000002B0000002B00013E
:1025F000002A0000002A0000002A0000002A000132
:102600000029000000290000002900000029000026
:102610000029000100280000002800000028000018
:10262000002800000028000100270000002700000B
:1026300000270000002700000027000100260000FE
:1026400000260000002600000026000000260001F1
:1026500000250000002500000025000000250000E6
:1026600000250000002500010024000000240000D7
:1026700000240000002400000024000100230000CA
:1026800000230000002300000023000000230000BE
:1026900000230000002300010022000000220000AF
:1026A00000220000002200000022000000220001A1
:1026B0000021000000210000002100000021000096
:1026C0000021000000210000002100010020000086
:1026D000002000000020000000200000002000007A
:1026E000002000000020000000200001001F00006A
:1026F000001F0000001F0000001F0000001F00005E
:10270000001F0000001F0001001E0000001E00004E
:10271000001E0000001E000000043700001E2900FB
:1027200000511B00005810000010090000CC0400EC
:102730000078020000410100004261627973746513
:1027400070205A004368616E67652066696C616D30
:10275000656E74004368616E67652066696C616DC3
:10276000656E74004D36303020423000426162792F
:1027700073746570205A00466C6F7700466C6F77F3
:102780000046616E2073706565640046616E20735B
:10279000706565640042656400426564004E6F7A4E
:1027A0007A6C65004E6F7A7A6C65004661646520CC
:1027B00048656967687400466164652048656967B3
:1027C000687400426564205A00426564205A0053D0
:1027D00070656564005370656564004D61696E00E5
:1027E0005072656865617420504C412042656400F8
:1027F0005072656865617420504C4120456E6400DC
:102800005072656865617420504C4100507265706B
:1028100061726500507265686561742041425320A1
:10282000456E6400507265686561742041425320B2
:1028300042656400507265686561742041425300CE
:1028400050726570617265005654726176206D69D0
:102850006E005654726176206D696E005654726136
:1028600076206D696E00566D696E00566D696E005A
:10287000566D696E00566D6178204500566D617821
:10288000204500566D6178204500566D6178205ACC
:1028900000566D6178205A00566D6178205A0056B6
:1028A0006D6178205900566D6178205900566D6130
:1028B00078205900566D6178205800566D61782057
:1028C0005800566D61782058004D6F74696F6E0026
:1028D000416D6178204500416D6178204500416D72
:1028E0006178205A00416D6178205A00416D61780D
:1028F000205900416D6178205900416D6178205860
:1029000000416D6178205800412D74726176656CCC
:1029100000412D74726176656C00412D7265747290
:1029200061637400412D7265747261637400416368
:1029300063656C00416363656C004D6F74696F6E15
:102940000056652D6A65726B0056652D6A65726B5F
:102950000056652D6A65726B00567A2D6A65726B3A
:1029600000567A2D6A65726B0056792D6A65726B16
:102970000056792D6A65726B0056792D6A65726B07
:102980000056782D6A65726B0056782D6A65726BF9
:102990000056782D6A65726B004D6F74696F6E001A
:1029A0006265640A002C2073797374656D207374FA
:1029B0006F7070656421204865617465725F494479
:1029C0003A20004265642068656174696E6720661C
:1029D00061696C65640048656174696E6720666151
:1029E000696C65640045312048656174696E6720D3
:1029F0006661696C65640048656174696E6720662C
:102A000061696C65640070012C0190012701B001BF
:102A10002201C0011D01F001180110021301300252
:102A20000E016002090190020401C002FF000003D0
:102A3000FA004003F5008003F000D003EB0020040F
:102A4000E6007004E100E004DC004005D700C005AA
:102A5000D2004006CD00D006C8008007C300300871
:102A6000BE00F008B900C009B400B00AAF00B00B56
:102A7000AA00D00CA500000EA000500F9B00C010B3
:102A800096005012910000148C00C0158700B017FA
:102A90008200B0197D00D01B7800001E730040201A
:102AA0006E0090226900F024640040275F009029A6
:102AB0005A00E02B5500102E500020304B001032F1
:102AC0004600E033410090353C0010373700703845
:102AD0003200A0392D00B03A2800A03B2300603C12
:102AE0001E00103D1900903D1400103E0F00703E76
:102AF0000A00C03E0500003F0000403FFBFF803F52
:102B0000F6FFC03FF1FF453120544845524D414C3E
:102B10002052554E415741590042454420544845A2
:102B2000524D414C2052554E415741590054686511
:102B3000726D616C2052756E61776179004531204C
:102B40004572723A204D415854454D5000457272BD
:102B50003A204D415854454D5020424544004D4186
:102B60005854454D502074726967676572656400FA
:102B70004531204572723A204D494E54454D500022
:102B80004572723A204D494E54454D5020424544BD
:102B9000004D494E54454D50207472696767657207
:102BA0006564004D383420582059205A20450020B3
:102BB0002F007C3C3E5E2B3D3F2F5B5D3B2C2A2251
:102BC0005C001000C90210012C01400122017001BB
:102BD0001801B0010E01F00104015002FA00B00228
:102BE000F0003003E600D003DC009004D200700552
:102BF000C800A006BE000008B400B009AA00D00BAF
:102C0000A000600E960060118C0000158200201953
:102C10007800C01D6E00A0226400B0275A00902CDE
:102C2000500000314600E0343C0010383200903A49
:102C30002800603C1E00A03D1400803E0A00203F9A
:102C400000002042403A0020403A00486F6D652065
:102C50002573257325732066697273740020666975
:102C60007273740A005A0059005800486F6D65204D
:102C70000057726974696E6720746F2066696C65AD
:102C80003A20006F70656E206661696C65642C2067
:102C900046696C653A20006F70656E206661696CEC
:102CA00065642C2046696C653A200046696C652095
:102CB00073656C65637465640A002053697A653ACC
:102CC000200046696C65206F70656E65643A20006F
:102CD0002066696C653A2000646F696E67006672F1
:102CE000657368004E6F772000454E44205355426F
:102CF000524F5554494E450A002220706F730022EE
:102D000020706172656E743A2200535542524F55DD
:102D100054494E452043414C4C20746172676574A0
:102D20003A22004B494C4C45442E2000747279697C
:102D30006E6720746F2063616C6C207375622D6701
:102D4000636F64652066696C6573207769746820B9
:102D5000746F6F206D616E79206C6576656C732E73
:102D6000204D4158206C6576656C2069733A0043AC
:102D7000616E6E6F74206F70656E2073756264692A
:102D80007220006563686F3A004572726F723A0094
:102D900046696C652064656C657465643A004465D9
:102DA0006C6574696F6E206661696C65642C204681
:102DB000696C653A20006F70656E206661696C65AC
:102DC000642C2046696C653A20004D3234004D3247
:102DD0003320257300556E6B6E6F776E20636F6DB9
:102DE0006D616E643A202200486F74656E642074D1
:102DF0006F6F20636F6C640A006F70656E20666190
:102E0000696C65642C2046696C653A2000577269CC
:102E100074696E6720746F2066696C653A20005390
:102E2000442063617264206F6B0A006F70656E529C
:102E30006F6F74206661696C65640A00766F6C75EB
:102E40006D652E696E6974206661696C65640A003F
:102E5000534420696E6974206661696C0A00290A0E
:102E6000002062797465733B2063726320002073D5
:102E7000746F7265642073657474696E6773207211
:102E80006574726965766564202800202863616C2A
:102E900063756C6174656429210A0020213D20005E
:102EA000454550524F4D20435243206D69736D612B
:102EB000746368202D202873746F72656429200064
:102EC0002053697A653A2000496E6465783A20009B
:102ED000204D61726C696E3D563535290A002845D2
:102EE0004550524F4D3D00454550524F4D2076655F
:102EF0007273696F6E206D69736D61746368200011
:102F000048617264636F6465642044656661756CD2
:102F1000742053657474696E6773204C6F616465C7
:102F2000640A00F4010000F401000064000000885D
:102F300013000000009643000096430000A04000EC
:102F400000C8410000A0420000A0420000C84300A9
:102F500080CF43454550524F4D204F4B0A003A20F9
:102F60000050726F6265205A204F66667365740068
:102F70003F5A206F7574206F662072616E676520FE
:102F8000282D323020746F203230290A004D36301F
:102F9000303A20546F6F20636F6C6400486F746523
:102FA0006E6420746F6F20636F6C640A00496E73E7
:102FB0006572742066696C616D656E7420616E6403
:102FC00020707265737320627574746F6E0A00509E
:102FD0007265737320627574746F6E20746F2068ED
:102FE000656174206E6F7A7A6C650A00496E73654C
:102FF00072742066696C616D656E7420616E642008
:10300000707265737320627574746F6E20286F72AE
:10301000204D313038290A00496E7365727420667C
:10302000696C616D656E7420616E64207072657389
:103030007320627574746F6E20286F72204D31306A
:1030400038290A0000000000000000000000000015
:1030500000009643000096430000C84353544F506D
:103060005045442E20005072696E7465722073744E
:103070006F707065642064756520746F206572726E
:103080006F72732E204669782074686520657272AD
:103090006F7220616E6420757365204D3939392057
:1030A000746F20726573746172742E202854656D7C
:1030B00070657261747572652069732072657365DD
:1030C000742E2053657420697420616674657220C3
:1030D00072657374617274696E67290A0053544F84
:1030E000502063616C6C6564206265636175736513
:1030F000206F6620424C546F756368206572726F52
:1031000072202D20726573746172742077697468FF
:10311000204D3939390A00486F6D696E6720666144
:10312000696C656400486F6D652058592066697246
:1031300073740A00486F6D65205859206669727370
:1031400074000A4D6561737572656420706F696EF5
:1031500074733A0A005A206F66667365743A2000E9
:103160004E756D20582C593A20332C330A00627565
:1031700073793A2070617573656420666F72206997
:103180006E7075740A00627573793A207061757398
:10319000656420666F7220757365720A00627573CC
:1031A000793A2070726F63657373696E670A004BBA
:1031B000494C4C45442E20004B494C4C20636175D2
:1031C000736564206279204B494C4C20627574749D
:1031D0006F6E2F70696E0A004B494C4C45442E208F
:1031E000004B494C4C206361757365642062792003
:1031F000746F6F206D75636820696E6163746976A2
:10320000652074696D65202D2063757272656E741A
:1032100020636F6D6D616E643A20004D3630300072
:10322000506C656173652072657365740050524916
:103230004E5445522048414C544544005072696EEA
:103240007465722068616C7465642E206B696C6CA7
:1032500028292063616C6C6564210A00000000006D
:10326000000000000000000000004842000048424A
:1032700000008040000000005761726E696E673A7E
:1032800020486F6D696E672042756D7020446976C5
:1032900069736F72203C20310A000202040000A012
:1032A000400000A04000000040000096430000964F
:1032B000430000C843FFFFFF426F6E64746563689C
:1032C0002043522D3130732052656164792E0050B5
:1032D00072696E74696E672E2E2E005072696E745C
:1032E00020706175736564004D313036205025695A
:1032F00020532569004D31303920532569004D3167
:10330000393020532569004D3432302053300A477C
:103310003238205820590053746F70207072696ED3
:103320007400526573756D65207072696E7400501B
:103330006F7765722D4C6F7373205265636F76657E
:1033400072790053746F7720424C546F7563680034
:103350004D32383020503020533930004465706C85
:103360006F7920424C546F756368004D32383020BD
:1033700050302053313000424C546F7563682053F5
:10338000656C662D54657374004D323830205030B2
:10339000205331323000526573657420424C546FB3
:1033A000756368004D32383020503020533136304C
:1033B000004D61696E005072696E742061626F72B7
:1033C000746564004D3231004E6F205344206361B8
:1033D0007264004368616E676520534420636172C4
:1033E00064004D3231005072696E742066726F6DE8
:1033F0002053440053746F70207072696E740052D1
:103400006573756D65207072696E7400496E6974BC
:103410002E205344206361726400506175736520EF
:103420007072696E7400436F6E74726F6C005072CC
:1034300065706172650054756E6500496E666F2037
:1034400073637265656E00526573656E643A200041
:103450006F6B0020746F6F206C6F6E6720657874DF
:10346000727573696F6E2070726576656E746564CF
:103470000A0020636F6C6420657874727573696FDD
:103480006E2070726576656E7465640A004D6F76A5
:10349000652058004D6F76652059004D6F76652088
:1034A0005A004578747275646572004D6F766520B8
:1034B000302E316D6D004D6F766520316D6D004D94
:1034C0006F76652031306D6D004D6F7665206178C7
:1034D0006973004578747275646572004D6F766526
:1034E000205A004D6F76652059004D6F7665205843
:1034F0000000B600B00011241FBECFEFD1E2DEBF46
:10350000CDBF00E00CBF13E0A0E0B2E0E6E1FDE3D8
:1035100002E00BBF02C007900D92AC39B107D9F79A
:103520002CE1ACE9B3E001C01D92A437B207E1F78A
:103530001AE1CAE7DAE100E006C021970109802F0D
:10354000FE010F94EF1DC937D10780E00807A9F7E6
:103550000F9474070D947A1E0C9400002F923F92E2
:103560004F925F926F927F928F929F92AF92BF9293
:10357000CF92DF92EF92FF920F931F93CF93DF933F
:10358000CDB7DEB7C856D1090FB6F894DEBF0FBE6F
:10359000CDBF21E02093481B8091A11B8D3409F4FD
:1035A000C3C3843511F40C94B030873411F00C94FB
:1035B000F43080919F1B9091A01B8D31910509F4EF
:1035C000A9C0BCF484309105B1F13CF4029708F035
:1035D000A7C30E940CE00C94F6308B31910509F4DE
:1035E00069C04C9709F09CC380E00E946EE40C9483
:1035F000F6308A35910509F421C344F48E319105E2
:1036000009F48CC08A9709F457C28AC38B35910597
:1036100009F418C38C35910509F082C37AE6272E88
:1036200072E0372EE8E5CE2EEBE1DE2EE12CF12C18
:1036300000E010E044C380E50E94023A882329F0AC
:103640000E9448396B017C0103C0C12CD12C76014A
:1036500083E50E94023A882361F00E94883920E0C5
:1036600030E04AE754E40F9404190F94AF1C6B0147
:103670007C010E9441EA80911915811105C060E02A
:1036800081EB92E00E9482900E945A5EC60ED71E85
:10369000E81EF91E0E945A5EDC01CB018C199D09BF
:1036A000AE09BF09B7FD02C00C94F63080E00E945D
:1036B00093F1F0CF0E9437C981110C94F63080E06D
:1036C00090E0A0E2B1E489839A83AB83BC8380E07D
:1036D00090E0A1E9B3E48D839E83AF83B88780E057
:1036E00090E0A0EAB1E489879A87AB87BC8780E540
:1036F0000E94023A882319F00E94583901C060E004
:1037000068A3BE016F5F7F4FCE0180960E94E7ECF9
:103710000C94F6300E945F710C94F630C090A808AB
:10372000D090A908E090AA08F090AB0888E50E9424
:10373000023A811109C020E030E040E052E4C701C4
:10374000B6010F94CB1B02C00E9488394B015C016B
:10375000C090AC08D090AD08E090AE08F090AF08F3
:1037600089E50E94023A811109C020E030E040E082
:1037700050E4C701B6010F94CA1B02C00E948839E9
:103780002B013C019B01AC01C501B4010E9482F0F8
:10379000882311F40C94F63080E00E94A0E10E948E
:1037A00000E385E40E94023A882321F00E947939DF
:1037B000382E05C085E40E94BB393324339486E556
:1037C0000E94023A882321F00E945839262E02C016
:1037D00022242394A3019201C501B4010E9482F026
:1037E000882309F44DC12091B0083091B10840916F
:1037F000B2085091B30828A739A74AA75BA78091C0
:10380000160290911702A0911802B09119028CA390
:103810009DA3AEA3BFA385E595E5A5E0B3E48093A2
:10382000160290931702A0931802B09319021982FE
:103830001A821B821C8220E030E040E050E4C30189
:10384000B2010F94CB1B6CA77DA78EA79FA720E08A
:1038500030E040E052E4C501B4010F94CA1BDE0120
:1038600011966D01E8A4F9A40AA51BA52CA53DA5F8
:103870004EA55FA50E9475E381E00E94A7E6811135
:103880001AC00E94FAE52091210B3091220B409141
:10389000230B5091240B0F94CB1B6B017C01B1E0E7
:1038A0003B1621F0E2E0E21588F05AC080E00E9469
:1038B000A7E68823B9F332E0321510F00C94FB3000
:1038C000C12CD12CF0ECEF2EFFE7FF2EE3EEF2E05F
:1038D00084918F010F5F1F4F882321F00E94283AA7
:1038E000F801F6CF20913D1C30913E1C40913F1CC9
:1038F0005091401CC501B4010F94CB1B43E00E94C2
:10390000173EEEEDF2E084918F010F5F1F4F882389
:1039100021F00E94283AF801F6CF2091411C309105
:10392000421C4091431C5091441CC301B2010F94AE
:10393000CB1B43E00E94173EE9EDF2E084918F013A
:103940000F5F1F4F882321F00E94283AF801F6CF1D
:1039500043E0C701B6010E94173E8AE00E94283A60
:103960002CA13DA14EA15FA1209316023093170216
:103970004093180250931902A7019601C701B6019E
:103980000F94A41D882329F160E08AEC92E00E9444
:103990008290E9E8FDE284918F010F5F1F4F882339
:1039A00021F00E94283AF801F6CFEAEBF2E0849188
:1039B0008F010F5F1F4F882321F00E94283AF801E2
:1039C000F6CFA7019601C701B6010F94A41D81117E
:1039D00057C020E030E0A901C501B4010F949F1841
:1039E00087FD05C027E137EB41E558E304C027E137
:1039F00037EB41E558EBC501B4010F94CB1BAB018C
:103A0000BC0185EF92E00E94943F20E030E0A901E4
:103A1000C301B2010F949F1887FD05C027E137EB62
:103A200041E558E304C027E137EB41E558EBC3011A
:103A3000B2010F94CB1BAB01BC0180EF92E00E945E
:103A4000943F20E030E0A901C701B6010F949F1810
:103A500087FD05C027E137EB41E558E304C027E1C6
:103A600037EB41E558EBC701B6010F94CB1BAB0117
:103A7000BC018BEE92E00E94943F8AE00E94283ABB
:103A800080919E0390919F03A091A003B091A10308
:103A90008093160290931702A0931802B093190214
:103AA00080919C0390919D039093370280933602FE
:103AB0000E94EF6A0C94F63080913802882311F44A
:103AC0000C94F63089E40E94023AF82E882321F003
:103AD0000E945839062F01C000E08AE40E94023A91
:103AE000E82E882331F00E945839162FF11004C0B7
:103AF0000AC010E0FF20B1F0033010F40C94FC3445
:103B0000EDEFF2E003C01330D8F70CC084918F01C1
:103B10000F5F1F4F882311F40C94F6300E94283A4F
:103B2000F801F4CF0E94143AFF2091F034E0030230
:103B3000F0011124EA55F84E80819181A281B38170
:103B40008093641B9093651BA093661BB093671BC7
:103B5000EE2091F044E01402F0011124E656F84EF4
:103B600080819181A281B3818093681B9093691BAE
:103B7000A0936A1BB0936B1B80E50E94023A8823D6
:103B8000E9F00E9479398823A9F1FF20D9F020E0DB
:103B900030E040E052E46091641B7091651B8091BD
:103BA000661B9091671B0F94CA1B6093641B7093F4
:103BB000651B8093661B9093671B04C080E50E9481
:103BC000BB39E1CFEE20B1F020E030E040E050E43E
:103BD0006091681B7091691B80916A1B90916B1BAF
:103BE0000F94CB1B6093681B7093691B80936A1BB7
:103BF00090936B1B86E40E94023A8823D9F00E94BE
:103C000088396B017C0120E030E0A9010F942E1D62
:103C1000181684F420E030E040E752E4C701B60112
:103C20000F94421C6093160270931702809318023F
:103C3000909319020E943FF90C94F6301092A6035B
:103C40000C94F6302093A6030C94F6300E94883929
:103C50002B013C01133059F0F701E35CF34E208156
:103C60003181428153810F94CA1B2B013C01F70122
:103C7000E855F74F2081318142815381C301B20160
:103C80000F94CA1B4B015C012DEB37E346E855EB63
:103C90000F942E1D87FD1BC02DEB37E346E855E33F
:103CA000C501B4010F949F1818168CF01F5FB4E083
:103CB000CB0ED11CE4E0EE0EF11C143039F1D10131
:103CC0008D911D010E94023A882381F3BFCF1330EA
:103CD00051F44092B4085092B5086092B6087092C0
:103CE000B70801E0E3CFA5019401F601608171817D
:103CF000828193810F94CB1BD6016D937D938D931D
:103D00009C931397812F0E9445E7D0CF002321F089
:103D100084EB98E00E94D8C90E94EF6A0C94F630B8
:103D20000E94D9D10C94F63080919F1B9091A01BDA
:103D30008637910509F4B8C50CF0C5C08C349105DF
:103D400009F47DC30CF053C08931910509F4C4C254
:103D500034F58431910509F4CAC194F48131910597
:103D600009F4B6C144F4029710F00C94AD300E94EF
:103D7000D3700C94F630429709F448C40C94AD30DB
:103D80008631910509F4FAC10CF4F4C1873191052B
:103D900009F4FAC1489709F40FC20C94AD308E3182
:103DA000910509F42FC384F48B31910509F4A8C25D
:103DB0000CF498C28C31910509F41AC34D9711F493
:103DC0000C94F6300C94AD308032910509F445C264
:103DD0000CF42DC38A32910509F42DC38B3491055F
:103DE00011F00C94AD300E94E39B0C94F6308A36AF
:103DF000910509F4E1C3B4F58435910509F406C4CD
:103E0000E4F48135910509F4F9C34CF48D3491053E
:103E100011F00C94AD300E941A9C0C94F63082354F
:103E2000910509F4EFC38335910511F00C94AD3081
:103E300081E08093A5030C94F6308C35910509F44C
:103E400035C434F48535910509F415C40C94AD30AE
:103E50008836910509F4F7C28936910509F433C310
:103E60000C94AD308F36910509F4F1C29CF48C3678
:103E7000910509F4F0C20CF4BDC38D36910509F427
:103E800064C38E36910511F00C94AD300E94666CBF
:103E90000C94F6308237910509F491C454F48037BC
:103EA000910509F4DCC28137910509F4E0C20C9454
:103EB000AD308337910509F488C48537910509F43D
:103EC000E2C40C94AD308D32F1E09F0711F40C94F4
:103ED000992A0CF071C08B3C910509F4A1C69CF5A0
:103EE0008139910509F4C1C584F48837910509F435
:103EF000ABC50CF425C58937910509F4AEC58C38DE
:103F0000910509F426C30C94AD308E3B910509F45C
:103F10003EC334F48B39910509F4F0C20C94AD30F2
:103F2000883C910509F41BC6893C910511F00C945D
:103F3000AD30A5E2EA2EA1E1FA2E0AE612E0B4E0E5
:103F4000DB2ED00E54C68C3D910511F40C9407293C
:103F50009CF48D3C910509F4F9C60CF47FC68E3CA7
:103F6000910509F474C7833D910511F00C94AD30AF
:103F7000E3E8FDE20C942928883131E0930711F43D
:103F80000C94AD2964F48D3D910511F40C94142921
:103F9000823E910511F40C9482290C94AD3082324A
:103FA00051E0950711F40C94632A8C32914011F47E
:103FB0000C94702A0C94AD308C3AB1E09B0709F454
:103FC00068C7F4F58139F1E09F0711F40C94942E41
:103FD000C4F48F3231E0930711F40C948E2B14F457
:103FE0000C943A2B833651E0950711F40C947B2EF8
:103FF0008039914011F00C94AD300E9441EA0C944C
:10400000F6308A39B1E09B0709F42DC264F4823995
:10401000914011F00C94AD3080E00E94A7E60E9420
:10402000EF6A0C94F630843A21E0920711F40C9474
:104030009A2E853A914011F40C94AC2F0C94AD302B
:10404000883542E0940711F40C949230FCF4853FDB
:10405000A1E09A0711F40C948C304CF4843F914009
:1040600011F00C94AD300E94BA4F0C94F630863F9C
:10407000F1E09F0711F40C948F30883F914011F0CC
:104080000C94AD300E94E8DF0C94F6308B3833E0AE
:10409000930711F40C94F6307CF48B3552E09507BD
:1040A00011F40C9495308335934011F00C94AD309D
:1040B0000E9476DF0C94F630803AB3E09B0709F457
:1040C000A9C1873E934011F40C9498300C94AD3004
:1040D00060E08CE193E00E9482905F988A988091E2
:1040E000080181708093060112980C94F630E4E385
:1040F000F3E084918F010F5F1F4F882321F00E940E
:10410000283AF801F6CF1092E41A40E050E0BA01E4
:1041100088E798E10E9456578BE1E8E7F8E1DE0175
:10412000159601900D928A95E1F7809176189091FD
:1041300077189C838B8384EF92E09A83898340E095
:1041400050E0BE016F5F7F4F80E090E00E94ECC4C2
:10415000CE0101960E9403F1E5E2F3E084918F0124
:104160000F5F1F4F882311F40C94F6300E94283AF9
:10417000F801F4CF0E9425CF0C94F6301092481825
:10418000109249180C94F6300E94AFCEE0919D1B1E
:10419000F0919E1B8081882329F0803209F41082DF
:1041A0003196F8CF40E061E080919D1B90919E1B7D
:1041B0000E9457C70C94F63083E50E94023A882388
:1041C00081F00E945839AB01BC014093E01A509332
:1041D000E11A6093E21A7093E31A80E19AE10E9477
:1041E000565780914918882319F081E08093481828
:1041F00084E50E94023A882309F46AC00E94583973
:10420000A2966FAFA297A3967FAFA397A4968FAF06
:10421000A497A5969FAFA5970E94C89BA2966FAD45
:10422000A297A3967FADA397A4968FADA497A596CA
:104230009FADA597609397107093981080939910F5
:1042400090939A10672B682B692B11F40C94F6301D
:1042500081E080937E1B0C94F63080914818811188
:104260000E9441EA80914918882311F40C94F63099
:1042700080E50E94023A882309F4C8C00E94793977
:10428000182F482F61E080919D1B90919E1B0E94EA
:1042900057C783E50E94023A882381F00E9458396B
:1042A000AB01BC014093E01A5093E11A6093E21A0B
:1042B0007093E31A80E19AE10E9456578091491861
:1042C000882319F081E08093481811110C94F6307E
:1042D0000E94E39B0C94F630109248180E94059CB3
:1042E0000C94F63080914918882311F40C94F63020
:1042F00083E50E94023A81110C940F310C94F63040
:1043000083E40E94BB39882399F1E2E7F3E08491CA
:104310008F010F5F1F4F882321F00E94283AF80178
:10432000F6CF8091131A882391F0BE016F5F7F4F03
:1043300080E19AE10E94ECBA8E010F5F1F4FD80115
:104340008D918D01882379F00E94283AF8CFE5E419
:10435000F3E084918F010F5F1F4F882321F00E94AB
:10436000283AF801F6CF8AE00E94283A0C94F630F9
:1043700080914918882371F180914818882351F160
:10438000EFE4F3E084918F010F5F1F4F882321F04A
:104390000E94283AF801F6CF6091E01A7091E11A74
:1043A0008091E21A9091E31A4AE00E945C3D8FE20C
:1043B0000E94283A6091DC1A7091DD1A8091DE1A11
:1043C0009091DF1A4AE00E945C3D8AE00E94283A00
:1043D0000C94F630E1E6F3E084918F010F5F1F4FFC
:1043E000882311F40C94F6300E94283AF801F4CF97
:1043F00040E060E080919D1B90919E1B0E9457C7FA
:104400000C94F6300E94AF6F0C94F63080E50E9459
:10441000BB3936CF80919D1B90919E1B21E020934C
:10442000471840E060E00E9457C70C94F6300E94A5
:10443000E06E0C94F6300E94A36E0C94F6300E944D
:10444000059C0C94F6300E945D6E0C94F6300E9430
:10445000EF6B0C94F63010924F020C94F63081E81A
:1044600093E00E9424F10E946D6A0C94F63083E57B
:104470000E94023A882369F00E9468398D3320F443
:10448000809356020C94F6308CE3809356020C9481
:10449000F630E3E8FDE284918F010F5F1F4F882320
:1044A00021F00E94283AF801F6CF4091560250E0E0
:1044B00060E070E08AE893E00E94793F8AE00E9421
:1044C000283A0C94F63089E690E00E94C23D8111B2
:1044D00011C0E1E9F3E084918F010F5F1F4F882342
:1044E00021F00E94283AF801F6CF0E9467C48AE0C2
:1044F0000E94283A1092481B0C94023583E50E94D2
:10450000023A882311F40C94F6300E946839182F6F
:104510008D3308F01CE31093571B0E945A5E6B0109
:104520007C01212F30E0A8EEB3E00F94BB1BC60E38
:10453000D71EE81EF91EC092531BD092541BE09266
:10454000551BF092561B0C94F6300E94766C0C941E
:10455000F6308091FC1A83FF02C00C94F63083E59C
:104560000E94023A882311F40C94F6300E94883994
:104570000F94AA1C6837710514F068E770E0709317
:10458000EA1A6093E91A0E9469B40C94F63080919B
:10459000FC1A83FF02C00C94F63083E50E94023AB5
:1045A0008BAB81110C94203182E50E94023A81117B
:1045B0000C9420310C94F63080E50E94023A81116F
:1045C00006C083E50E94023A882361F006C00E947B
:1045D000683981110C94F630F4CF0E9458396F3F3E
:1045E000710510F06FEF70E07093EC1A6093EB1AA6
:1045F0000C94F6300E944E6E0C94F6300E94DC6BE8
:104600000C94F6301092A5030C94F63083E50E94CA
:10461000023A8823A1F00E94883920E030E04AE77E
:1046200054E40F9404190F94AF1C609357027093D5
:1046300058028093590290935A020C94F63088E500
:104640000E94BB3981110C94A13289E50E94BB39CB
:1046500081110C94A1328AE50E94BB3981110C941E
:10466000A13285E40E94BB3981110C94A1320E94D1
:1046700051EA0C94F63083E50E94BB39882311F48B
:104680000C94F6300E94883920E030E04AE754E488
:104690000F9404190F94AF1C60934D1B70934E1B25
:1046A00080934F1B9093501B0C94F6303AE6C32E28
:1046B00032E0D32E46ECE42E42E1F42E10E0D60197
:1046C0008D916D010E94BB39882309F46DC01330B0
:1046D00009F063C00E9488394B015C0120E030E0A2
:1046E00040EA51E40F949F1887FF4EC0A501940142
:1046F0006091D2127091D3128091D4129091D51200
:104700000F94421C2B013C019B01AC0160914D11A7
:1047100070914E1180914F11909150110F94041986
:1047200060934D1170934E1180934F1190935011DF
:10473000A3019201609121117091221180912311A6
:10474000909124110F9404196093211170932211F8
:1047500080932311909324116091DA0A7091DB0AFF
:104760008091DC0A9091DD0A0F94A318A3019201B5
:104770000F9404190F94AF1C6093DA0A7093DB0A4C
:104780008093DC0A9093DD0A8092D2129092D31229
:10479000A092D412B092D51207C00E948839F701B6
:1047A00060837183828393831F5FF4E0EF0EF11CBB
:1047B000143009F084CF0E9456410C94F6300E94C8
:1047C00041EA0E94EF6A0C94F630E5E9F4E0849146
:1047D0008F010F5F1F4F882321F00E94283AF801B4
:1047E000F6CF60E085E894E00E94AB6A61E08EE776
:1047F00094E00E94AB6A61E083E794E00E94AB6AB8
:1048000061E083E694E00E94AB6A60E08AE594E0B0
:104810000E94AB6A61E080E594E00E94AB6A60E0D0
:1048200086E494E00E94AB6A61E08EE394E00E942B
:10483000AB6A61E080E394E00E94AB6A60E082E2F0
:1048400094E00E94AB6A60E083E194E00E94AB6A6E
:1048500060E085E094E00E94AB6A60E08FEE93E058
:104860000E94AB6A60E08EED93E00E94AB6A60E06C
:1048700089EC93E00E94AB6A61E086EB93E00E94D2
:10488000AB6A0C94F63080919D1B90919E1BDC01CD
:104890002C91211104C00E9434F70C94F63060E092
:1048A0000E94BC900C94F63000919D1B10919E1BB1
:1048B00083E0D12C40E08150E1F0F8019081292F74
:1048C0002B7F2134C1F721812133A9F7913421F0C5
:1048D000953421F441E002C0DD24D39498012E5F89
:1048E0003F4F89012F5F3F4FD8019C919032C9F310
:1048F000E2CF442369F0E3E8FDE284917F01BFEF5A
:10490000EB1AFB0A882321F00E94283AF701F5CF21
:10491000DD2069F0E0E6F5E084917F012FEFE21AF7
:10492000F20A882321F00E94283AF701F5CFD80136
:104930008D918D01882309F416CD0E94283AF7CF76
:10494000E7E8F5E084918F010F5F1F4F882321F086
:104950000E94283AF801F6CFEFE7F5E084918F0145
:104960000F5F1F4F882321F00E94283AF801F6CFED
:10497000659903C00CE313E002C001E413E0F80101
:1049800081918F01882319F00E94283AF8CF8AE09C
:104990000E94283AE7E7F5E084918F010F5F1F4FEF
:1049A000882321F00E94283AF801F6CF8091030174
:1049B00081FD03C00CE313E002C001E413E0D80161
:1049C0008D918D01882319F00E94283AF8CF8AE052
:1049D0000E94283AEFE6F5E084918F010F5F1F4FA8
:1049E000882321F00E94283AF801F6CF4B9903C0A2
:1049F0000CE313E002C001E413E0F80181918F01A0
:104A0000882319F00E94283AF8CF8AE00E94283AB9
:104A1000E4E6F5E084918F010F5F1F4F882321F0BA
:104A20000E94283AF801F6CF649B03C00CE313E020
:104A300002C001E413E0D8018D918D01882309F4AF
:104A400092CC0E94283AF7CF81E08093AF03809305
:104A5000AE030E9452EE0C94F6301092AF03109207
:104A6000AE030E9452EE0C94F63083E50E94023AA7
:104A7000882319F00E94583902C060E070E08B0171
:104A8000112702301105D4F0E9E8FDE284918F018D
:104A90000F5F1F4F882321F00E94283AF801F6CFBC
:104AA000E1EAF5E084918F010F5F1F4F882311F435
:104AB0000C94F6300E94283AF801F4CF88E40E9462
:104AC000023A8823A9F00E9458396A3A71053CF0ED
:104AD0006E31B1E07B072CF06DE171E002C06AEA53
:104AE00070E0F801EE0FFF1FE55FF44F7183608304
:104AF00086E40E94023A8823A9F00E945839F801FE
:104B0000EE0FFF1FE15FF44F718360836F3F71050C
:104B100019F014F06FEF70E077FF02C060E070E012
:104B20007183608382E40E94023A882311F40C941A
:104B3000F6300E9458396530710534F06A367105D7
:104B40002CF069E670E002C065E070E0000F111F14
:104B5000F801E95FF44F718360830C94F63088ECC0
:104B600090E00E94C23D81110C94F63084E40E94D2
:104B7000BB398823C1F10E94883911E020E030E080
:104B8000A9010F949F18811101C010E01093310BFF
:104B9000112349F10E948839E091AA1124E0E29F93
:104BA000F0011124E35DF44F60837183828393836A
:104BB00020E030E0A90160912D0B70912E0B8091C7
:104BC0002F0B9091300B0F949F1881110CC080E037
:104BD00090E0A0EEBFE380932D0B90932E0BA0935B
:104BE0002F0BB093300B0E9485E70C94F630D80160
:104BF0008D918D010E94BB39882349F00E9488392C
:104C00000F94AF1CF7016083718382839383F4E078
:104C1000EF0EF11CD012EBCF0E9416400C94F63030
:104C2000E5E1EE2EE1E1FE2E0AE612E0F4E0DF2EF1
:104C3000D00ED8018D918D010E94BB39882339F0A7
:104C40000E948839F7016083718382839383F4E043
:104C5000EF0EF11CD012EDCF0C94F63083E50E94DC
:104C6000023A8823A1F00E94883960933D11709325
:104C70003E1180933F1190934011609335117093D2
:104C80003611809337119093381110E001C011E074
:104C900080E50E94023A882359F00E948839609387
:104CA0003D1170933E1180933F119093401110E09D
:104CB00082E50E94023A882359F00E948839609365
:104CC000391170933A1180933B1190933C1110E08D
:104CD00084E50E94023A882361F00E94883960933B
:104CE00035117093361180933711909338110C94CD
:104CF000F630112311F40C94F63040913D1150918F
:104D00003E1160913F117091401189EC95E00E9435
:104D1000943F4091391150913A1160913B1170913B
:104D20003C1186EC95E00E94943F409135115091E2
:104D30003611609137117091381183EC95E00E9423
:104D4000943F8AE00E94283A0C94F63082E40E9454
:104D5000BB39882351F00E9448396093CA0A709386
:104D6000CB0A8093CC0A9093CD0A83E50E94BB398D
:104D7000882351F00E9488396093111170931211A9
:104D8000809313119093141184E50E94BB398823FA
:104D900051F00E94883960930D1170930E11809329
:104DA0000F119093101188E50E94BB39882351F0B0
:104DB0000E9488396093411170934211809343118E
:104DC0009093441189E50E94BB39882351F00E94D9
:104DD00088396093451170934611809347119093E1
:104DE00048118AE50E94BB398823F1F00E94883976
:104DF0006093491170934A1180934B1190934C1119
:104E00002DEC3CEC4CEC5DE30F949F18181664F00D
:104E1000E9EDF5E084918F010F5F1F4F882321F0AA
:104E20000E94283AF801F6CF85E40E94BB39882316
:104E300011F40C94F6300E94883960934D117093F0
:104E40004E1180934F11909350110C94F6306AE6F6
:104E5000C62E62E0D62E72E9E72E78E0F72E10E03B
:104E6000D6018D916D010E94BB39882351F00E94BB
:104E70008839F7016083718382839383812F0E9435
:104E800045E71F5FF4E0EF0EF11C133049F70C9477
:104E90008C1E0E9437C981110C94F6305CE5452EBA
:104EA00052E3552E28EA38E03DA32CA3AE014F5F14
:104EB0005F4F3A0105EB12E31A0153E0500F58A778
:104EC000F2016591759185919491ACA1BDA18D90F0
:104ED0009D90AD90BD90BDA3ACA3A50194010F948E
:104EE000CA1B6B017C0120E030E040EA51EC0F94DA
:104EF0002E1D87FD10C020E030E040EA51E4C701DC
:104F0000B6010F949F18181634F0F101C082D182B7
:104F1000E282F3820EC0F80184911816B4F7B7FA52
:104F2000B094B7F8B094D1018D929D92AD92BC929D
:104F30001397D101CD90DD90ED90FD901D0120E003
:104F400030E040EA51ECC701B6010F942E1D87FFF7
:104F500003C0E9E8FDE20BC020E030E040EA51E4A4
:104F6000C701B6010F949F1818167CF5F2CF8491F3
:104F70008F010F5F1F4F882321F00E94283AF8010C
:104F8000F6CFE9E2F6E084918F010F5F1F4F88238F
:104F900021F00E94283AF801F6CF61E08BE196E01B
:104FA0000E9482900E94E79A88E290E099A388A3E9
:104FB00088EC90E09BA38AA3BE01605E7F4FCE0188
:104FC00082960E94D2C80C94F630B4E04B0E511C6D
:104FD0000F5F1F4FE8A5E01373CF42E9E42E48E0CE
:104FE000F42E10E0F30181919191A191B1913F01D3
:104FF000F70181939193A193B1937F01812F0E9437
:1050000045E71F5F133071F70E94EF6A60E08BE0A5
:1050100096E00E94829083E992E09BA38AA304E633
:1050200010E019A308A3BE016E5D7F4FCE018096EC
:105030000E94D2C88AEB92E09BA38AA319A308A37B
:10504000BE016E5D7F4FCE0180960E94D2C80C9447
:10505000F63084918F010F5F1F4F882321F00E944B
:10506000283AF801F6CF83E50E94BB39882321F066
:105070000E94793980936702EFE6F6E084918F0110
:105080000F5F1F4F882321F00E94283AF801F6CFC6
:1050900080916702811103C0EBE6F6E002C0E7E60B
:1050A000F6E084918F010F5F1F4F882321F00E944B
:1050B000283AF801F6CFEFE5F6E084918F010F5F13
:1050C0001F4F882321F00E94283AF801F6CF209143
:1050D0003D1C30913E1C40913F1C5091401C609102
:1050E000491C70914A1C80914B1C90914C1C0F9450
:1050F000CB1BAB01BC018DE596E00E94943F209153
:10510000411C3091421C4091431C5091441C6091C1
:105110004D1C70914E1C80914F1C9091501C0F940F
:10512000CB1BAB01BC018AE596E00E94943F209125
:10513000451C3091461C4091471C5091481C609181
:10514000511C7091521C8091531C9091541C0F94CF
:10515000CB1BAB01BC0187E596E00E94943FEFE4D6
:10516000F6E084918F010F5F1F4F882321F00E948A
:10517000283AF801F6CF20913D1C30913E1C409119
:105180003F1C5091401C60915B0270915C028091C9
:105190005D0290915E020F94CB1BAB01BC018DE4CC
:1051A00096E00E94943F2091411C3091421C409116
:1051B000431C5091441C60915F0270916002809189
:1051C0006102909162020F94CB1BAB01BC018AE497
:1051D00096E00E94943F2091451C3091461C4091DE
:1051E000471C5091481C6091630270916402809149
:1051F0006502909166020F94CB1BAB01BC0187E462
:1052000096E00E94943F8AE00E94283AEFC783E527
:105210000E94023A882309F4E9C70E945839709322
:10522000370260933602E2C78DED90E00E94C23DE6
:105230008111DCC783E50E94023A8823D9F10091ED
:10524000AA1110E00E945839000F111FF801EC5C00
:10525000FD4F718360838091AA1190E08C01000F53
:10526000111F000F111F9801205D3D4F7901880F1C
:10527000991FFC01EC5CFD4F60817181072E000CD1
:10528000880B990B0F94A5182AE037ED43E25CE3F5
:105290000F940419F801EB5FFE4E208131814281A9
:1052A00053810F940419D7016D937D938D939C9333
:1052B00013979CC7E3E8FDE284918F010F5F1F4FB6
:1052C000882321F00E94283AF801F6CF85E40E9455
:1052D000283A8091AA11805D0E94283AE091AA1193
:1052E000F0E0EE0FFF1FEC5CFD4F608171818FE7F6
:1052F00096E00E94AF3F85E20E94283A8AE00E9431
:10530000283A74C780E50E94BB39882309F46EC728
:105310000E9458396B017C0183E50E94023A882380
:1053200021F00E9458398B0102C00FEF1FEFC80116
:105330000196039708F05AC7D7FC58C79C2DE7E899
:10534000F6E08DE28E0F2491921711F40C94CD3279
:1053500031968E13F8CF0C94D03280E50E94BB3981
:10536000882309F443C70E9458396B017C016330DC
:10537000710508F08AC083E50E94BB39882369F073
:105380000E9458399601220F331F2C0D3D1DC90173
:10539000815E974E0E9430A429C7E3E8FDE2849124
:1053A0008F010F5F1F4F882321F00E94283AF801D8
:1053B000F6CFB6018DEC96E00E94AF3FF601EE0FFE
:1053C000FF1FCF018C0D9D1DFC01E15EF74E828118
:1053D00028E532E06901C81AD10887FDD394CC0CC6
:1053E000DD1CCC0CDD1C0D2C000CEE08FF088181AF
:1053F00028E830E04901881A910887FD9394880CC9
:10540000991C880C991C092C000CAA08BB088081E7
:105410008F3FC1F090E0FC01EE0FFF1F8E0F9F1F2A
:10542000FC01EE54F84E2181328173E0220F331FCC
:105430007A95E1F7E4E036952795EA95E1F72E5F56
:105440003F4F02C020E030E02F5F3F4FC901330FD4
:10545000AA0BBB0B9C01AD01281939094A095B094C
:10546000A4EBB0E00F94AB1BA701960128193909F2
:105470004A095B090F948F1BB9018AEC96E00E94E0
:10548000AF3F8AE00E94283AB1C6E9E8FDE2849184
:105490008F010F5F1F4F882321F00E94283AF801E7
:1054A000F6CFB60183EC96E00E94AF3FE4EBF6E066
:1054B00084918F010F5F1F4F882309F497C60E94C4
:1054C000283AF801F5CF8AE50E94023A81110C943E
:1054D000F93283E50E94023A81110C94F93286C6B2
:1054E00083E50E94023A882319F00E94583902C0CD
:1054F00064E071E079A368A380E50E94023A882302
:1055000039F00E9458396938E3E17E0730F402C06F
:1055100068EE73E07A83698304C088E893E19A8334
:105520008983BE01605E7F4FCE0101960E94D2C882
:105530005DC685E40E94023A811110C080E50E9498
:10554000BB39882391F00E9488396093FA0A7093DE
:10555000FB0A8093FC0A9093FD0A07C00E946839F9
:10556000882361F3E9E8FDE26EC089E40E94BB395B
:10557000882381F00E9488392CEA35EC47E25EE30B
:105580000F9404196093020B7093030B8093040B28
:105590009093050B84E40E94BB39882381F00E941C
:1055A00088392CEA35EC47E25EE30F94421C6093A5
:1055B000FE0A7093FF0A8093000B9093010BE3E8BF
:1055C000FDE284918F010F5F1F4F882321F00E941D
:1055D000283AF801F6CF4091FA0A5091FB0A6091FF
:1055E000FC0A7091FD0A8DED96E00E94943F2CEA32
:1055F00035EC47E25EE36091020B7091030B809102
:10560000040B9091050B0F94421CAB01BC0189ED7A
:1056100096E00E94943F2CEA35EC47E25EE360910D
:10562000FE0A7091FF0A8091000B9091010B0F947C
:105630000419AB01BC0185ED96E00E94943F8AE01D
:105640000E94283AD3C584918F010F5F1F4F882392
:1056500021F00E94283AF801F6CFE1EEF6E08491BD
:105660008F010F5F1F4F882309F4C0C50E94283A9D
:10567000F801F5CF83E50E94BB39182F882371F01C
:105680000E9488390F94AA1C7093510260935002B3
:1056900021E0672B09F020E02093F91A80E50E94B1
:1056A000BB39882359F02091500230915102232BAD
:1056B00011F00E9479398093F91A98C5111196C595
:1056C000E3E8FDE284918F010F5F1F4F882321F0F3
:1056D0000E94283AF801F6CF8091F91A811103C08F
:1056E0006BE473E002C06EE373E088E097E00E9431
:1056F000C63F609150027091510287EF96E00E9480
:10570000AF3FE3EFF6E084918F010F5F1F4F8823D7
:1057100009F46CC50E94283AF801F5CF85E40E948F
:10572000023A882321F00E9458397B0102C0E12C03
:10573000F12C83E40E94023A882331F00E94583908
:1057400029966FAF299704C025E029962FAF299796
:1057500085E50E94023A882319F00E94793903C036
:1057600085E50E94BB3965968FAF6597F7FC07C04A
:10577000812C912C56E1A52E53E4B52E06C0812C28
:10578000912C4CE8A42E42E4B42E83E50E94023A08
:10579000882321F00E9488394B015C01E114F10457
:1057A00011F41092AA110E945A5E2B013C01EE20C6
:1057B00069F0EAE8F8E084918F010F5F1F4F8823BA
:1057C00009F414C50E94283AF801F5CFE4EBF8E09B
:1057D00084917F013FEFE31AF30A882321F00E94AE
:1057E000283AF701F5CFC501B4010F94AA1C072E82
:1057F000000C880B990B0F94A5186CA778AB89AB9C
:105800009AABD301C201805E914BAF4FBF4FA196BF
:105810008CAF9DAFAEAFBFAFA1970E94FFB48FE733
:105820008093A81181E080934F0260964CAE5DAEEC
:105830006EAE7FAE609769964CAE5DAE6EAE7FAEDB
:1058400069972C961FAE2C976D961CAE1DAE1EAEA2
:105850001FAE6D971DAA90E499AFACE1AAAFB6E474
:10586000BBAF1CAE1DAE1EAE1FAE28961CAE1DAE4D
:105870001EAE1FAE289724961CAE1DAE1EAE1FAEE8
:105880002497C12CD12C76012FE730E040E050E086
:1058900028A739A74AA75BA73FE7832E912CA12C05
:1058A000B12C64961CAE1DAE1EAE1FAE649731E0E7
:1058B0002B963FAF2B971CAA1BAA10E0212C312C52
:1058C00000E029964FAD2997042E000C550B2A961F
:1058D0005FAF4EAF2A9780914F02882309F4C9C069
:1058E0000E945A5E6CA37DA38EA39FA38091551145
:1058F000882309F4A2C00E94BFB51091F41A209029
:10590000F51A3090F61A0091F71A212F322D432DF7
:10591000502F6CAD7DAD8EAD9FAD0F949F1887FF5E
:1059200004C01CAF2DAE3EAE0FAF212F322D432D44
:10593000502F6DA979AD8AAD9BAD0F942E1D181611
:1059400024F41DAB29AE3AAE0BAF2B965FAD2B976F
:105950002CA538A949A9552309F450C05AA9612F8B
:10596000722D832D902F0F942E1D18160CF065C0EC
:105970008CA19DA1AEA1BFA184199509A609B70963
:10598000A9968CAF9DAFAEAFBFAFA9978858934192
:10599000A109B109B7FD51C0D501C40128A539A598
:1059A0004AA55BA5821B930BA40BB50BB595A795D8
:1059B000979587958093A811A9968CAD9DADAEADB6
:1059C000BFADA99764968CAF9DAFAEAFBFAF6497E4
:1059D0009CA59CAFA8A9ADAFB9A9BEAFEAA9EFAF8E
:1059E0002CA13DA14EA15FA160962CAF3DAF4EAF63
:1059F0005FAF60972B961FAE2B971FC05AA9612FE0
:105A0000722D832D902F0F949F1887FF16C08CA1A5
:105A10009DA1AEA1BFA160962CAD3DAD4EAD5FADD9
:105A20006097821B930BA40BB50BAC01BD014858CA
:105A300053416109710977FF14C620E030E040EA64
:105A400051E46CA578A989A99AA90F94CB1B9B0155
:105A5000AC01612F722D832D902F0F942E1D1816DF
:105A60007CF4E6E1F8E084918F010F5F1F4F811114
:105A700003C00E94FFB4BAC30E94283AF801F3CFD2
:105A80008CA19DA1AEA1BFA169962CAD3DAD4EAD3F
:105A90005FAD6997821B930BA40BB50BB7FD90C04C
:105AA0000E9467C48AE00E94283A8CA19DA1AEA101
:105AB000BFA18053984FAF4FBF4F69968CAF9DAF3A
:105AC000AEAFBFAF69972C969FAD2C9791115DC07B
:105AD0006D962CAD3DAD4EAD5FAD6D97612F722DC6
